S01500006D6375626F6F745F7261326C312E7372656315
S31500000000C017002099270000A526000095270000AC
S3150000001095270000952700009527000095270000EA
S31500000020000000000000000000000000952700000E
S315000000309527000000000000952700009527000086
S3150000004070471FB501A801F08FFF28B12921054B84
S31500000050054A064802F023FB01A802F0C1F805B0E4
S3150000006000BDC046302A0000562A0000432A000080
S31500000070F0B5DBB002936F4B3AA81B6815000393EB
S3150000008001F036FA629B3BB1639B002B04DD1A003C
S3150000009062993AA801F056FA00266A892B899B18BC
S315000000A0EA689B180493049BB34249D83AA90EA860
S315000000B001F071FA649B23B1202218000EA902F008
S315000000C049FC002329000093029A4FF6FF7308A803
S315000000D000F0B8F80400002800D0A8E0049001253C
S315000000E06D420A2704ABFF1806AE3B00320007A993
S315000000F008A800F0F2F8041E00DA98E0002800D004
S3150000010086E03B88102B31D13688202E00D08CE03B
S315000001103300079902983AAA01F0CFFF040000289D
S3150000012000D084E032003AA90EA801F055FB040085
S31500000130414B1B68834200D079E001230493D0E74A
S31500000140049B619F9B1B9F4200D91F003B0031000F
S31500000150609A029801F0B1FF0400002867D13A00C6
S3150000016060993AA801F0EEF9F6199CE7012B2FD118
S315000001703388202B59D8079902983AAA01F09DFF97
S315000001800400002853D13678202E03D90124644276
S315000001902500A6E7294B2A4D1B680593059B9C4223
S315000001A0F4DA1EA801F0A4F96B6829681A681EA87B
S315000001B001F0C8F91EA916A801F0EDF932003AA916
S315000001C016A802F0B9FB08350028E1D00134E5E7AE
S315000001D0222B00D085E76B1C00D182E7174B1B68EA
S315000001E00593AB4200DC7AE73388802B1DD807994C
S315000001F002983AAA01F061FF0400C0B9EDB2338853
S31500000200202100953AAA0EA801F01EFC039066E78D
S31500000210049B01245BB1084B039A1B68934202D0EE
S31500000220044B1B680393039C01E0012464422000F5
S315000002305BB0F0BD44050020C4050020002C000082
S31500000240042C0000F0B587B002930CAB1B780400B9
S315000002500D001600039328B901235B420193019810
S3150000026007B0F0BD0029F7D0002AF5D0CB680F897A
S315000002703000FF183900042305AA01F01EFF019083
S315000002800028E9D146F6081204A989886B899142AB
S3150000029020D104AAD1889942DED104233000C9199D
S315000002A005AA01F00AFF0028D6D146F6071305AACB
S315000002B011889942D0D1029B25602381039B6660F9
S315000002C0A3726B89DB19E3605288D31863613B1D07
S315000002D02361C4E7002BE8D0BEE7F0B585B0040083
S315000002E01D000091019218B90120404205B0F0BDF1
S315000002F00368002BF8D04368002BF5D022696369A8
S315000003009A4215D223685B8923B1E368934201D1EF
S315000003100433236104232169606803AA01F0CDFE3A
S315000003200028E1D1A27A236922B1E2689A4201D873
S315000003300120DBE74FF6FF7602AAD18827890A1D3E
S31500000340B74203D002AEB688BE420CD115B103AF98
S315000003503F882F80009D04332B60019B1980236901
S315000003609A182261C2E7D3182361C7E7FFFFFFFF90
S31500000370FFFFFFFFFFFFFFFFFFFFFFFFFFFFFFFF87
S31500000380FFFFFFFFFFFFFFFFFFFFFFFFFFFFFFFF77
S31500000390FFFFFFFFFFFFFFFFFFFFFFFFFFFFFFFF67
S315000003A0FFFFFFFFFFFFFFFFFFFFFFFFFFFFFFFF57
S315000003B0FFFFFFFFFFFFFFFFFFFFFFFFFFFFFFFF47
S315000003C0FFFFFFFFFFFFFFFFFFFFFFFFFFFFFFFF37
S315000003D0FFFFFFFFFFFFFFFFFFFFFFFFFFFFFFFF27
S315000003E0FFFFFFFFFFFFFFFFFFFFFFFFFFFFFFFF17
S315000003F0FFFFFFFFFFFFFFFFFFFFFFFFFFFFFFFF07
S31500000400FFFFFFFFDFCEFFFFFCFF0F00FFFF0F0028
S31500000410FCFF0F00FFFF0F00FCFF0F00FFFF0F00A8
S31500000420FCFF0F20FFFF0F20FCFF7F40FFFF7F40F8
S31500000430FCFF0D40FFFF0D40FFFFFFFFFFFFFFFF2B
S31500000440FFFFFFFFFFFFFFFFFFFFFFFFFFFFFFFFB6
S31500000450FFFFFFFFFFFFFFFFFFFFFFFFFFFFFFFFA6
S31500000460FFFFFFFFFFFFFFFFFFFFFFFFFFFFFFFF96
S31500000470FFFFFFFFFFFFFFFFFFFFFFFFFFFFFFFF86
S3150000048010B540F26854C2F20004237863B940F212
S315000004900003C0F200032BB142F68870C0F20000E0
S315000004A000E000BF0123237010BDC04640F20003E8
S315000004B0C0F2000310B54BB140F26C5142F68870A1
S315000004C0C2F20001C0F2000000E000BF10BDC0464D
S315000004D010B50349034801F0F7FEFFF7B2FD10BD62
S315000004E0882A00008405002010B5FFF7F1FF0020E0
S315000004F010BDF7B5002500909C46280001926BB20E
S315000005009C4500DCFEBD019BAE008C599B59013514
S31500000510E3181B18E71A3A00A342A4415742574171
S31500000520009A3840644220439351E8E7002210B510
S315000005308900411804390B1D984200D310BD0C6880
S31500000540630813430B60E207F4E7FFFF70B515007D
S3150000055002680123160004001E401A4205D00A0054
S315000005602B000100FFF7C5FF060029002000FFF75A
S31500000570DDFF46B1044BED188023AD0064192268F7
S315000005801B061343236070BDFFFFFF3FF0B5002538
S315000005902C008DB0069007910892019300956BB2DE
S315000005A00A93019B6AB2934215DC01255B00013B6D
S315000005B00993019B013B0B930B9B099AEB185BB2CA
S315000005C0029393423BDB019BD800069B1818043824
S315000005D004600DB0F0BD0026AA0094463700AB00BB
S315000005E00B93089B63440993079AB300D058099A62
S315000005F05B42D2580023190002F070F902000B008A
S3150000060010001900009B02940393029A039B121890
S315000006104B410124994203D801D1904200D80024CD
S3150000062001360A9871B23F19009314008142DBDD4E
S3150000063006990B981C000A5001350097AFE7029BFC
S31500000640089A9B00D3180A930023009F6EB200936A
S31500000650019A73B29A4207DC029B069A9B00013507
S315000006609C50EDB23C00A7E7079AB300D0580A9A0F
S315000006705B42D2580023190002F030F902000B0049
S315000006801000190004940597049A059B12184B4113
S315000006900124994203D801D1904200D80024009940
S315000006A01F000919009114000136D1E710B50A1C84
S315000006B0002900DA002252B20021920002F053F91A
S315000006C010BD00230200180010B55CB2A14202DC86
S315000006D04342584110BD9C00145901332043F4E7AE
S315000006E01F234A1119401E3B8B4092001058184098
S315000006F07047FFFF0200013910B549B2041DCBB2A5
S31500000700080604D40139880020580028F7D00133A0
S315000007105BB218004BB100200649591889008A5867
S3150000072022B9013B5B01181800B210BD5208013016
S31500000730F6E7C046FFFFFF3F002330B55CB2A2429A
S3150000074000DC30BD9C000D5901330551F6E710B5AC
S31500000750013A52B2130601D5002010BD9300C458C9
S31500000760CB589C4205D8013A9C42F3D20120404224
S31500000770F3E70120F1E70300002030B5013A52B259
S31500000780140602D5431E984130BD95005C594D595B
S31500000790013A6C402043F3E7F7B5002400909C46ED
S315000007A02000019263B2634500DBFEBDA600019AFC
S315000007B08B5997591D1AED1B5F1B3A00AB429B41A3
S315000007C0574257415B4238401843009B01349D51C4
S315000007D0E8E7FFFFF0B50C0000278BB00822050004
S315000007E0FFF7AAFFE36A02AA0593236B110006939B
S315000007F0636B10000793A36B04970893E36B03974F
S31500000800099308230297FFF774FE082306002900C0
S3150000081002AA2800FFF76DFE236B02AA0593636BFD
S3150000082011000693A36B36180793E36B1000089329
S3150000083008230997FFF75DFE08232900361802AA48
S315000008402800FFF756FE236A29000293636A3618CA
S315000008500393A36A02AA0493A36B28000893E36B8D
S3150000086007970993082306970597FFF742FE636AE1
S31500000870A26B0293A36A06920393E36AE26B049364
S31500000880636B290005930893236A36180792099328
S3150000089002AA08232800FFF72CFEE36A2900029328
S315000008A0236B36180393636B02AA0493236A28000A
S315000008B00893A36A07970993082306970597FFF7F6
S315000008C06BFF236B29000293636B361A0393A36BAA
S315000008D002AA0493E36B28000593636A07970893BB
S315000008E0E36A069709930823FFF756FF636B29000F
S315000008F00293A36B361A0393E36B02AA0493236A4B
S3150000090028000593636A08970693A36A0793236BE7
S3150000091009930823FFF740FFA36B361A0293E36B94
S3150000092029000393636A28000593A36A02AA069323
S31500000930E36A04970793636B089701930993082367
S31500000940FFF72AFF341A0F4EBC4210DA0823320092
S3150000095029002800FFF7CDFD2418F7D40BB0F0BD11
S315000009600823320029002800FFF716FF241A002C5E
S31500000970F6D1082229003000FFF7E9FE0128EFD161
S31500000980ECE7C046702C000070B500261D0004ABD5
S315000009909E5704003300FFF7ACFD30B9320021004A
S315000009A02800FFF7D4FE012805D033002A002100D5
S315000009B02000FFF7F1FE70BD70B500261D0004ABE8
S315000009C09E5704003300FFF7E7FE28B133002A00E4
S315000009D021002000FFF78DFD70BDFFFFF0B51E0062
S315000009E0A9B018AB049007911000310006931700C8
S315000009F0FFF780FEB3011B1A1F201BB2DC17044051
S31500000A003B4DE4186411019364B21D4004D52023C4
S31500000A10013D5B421D43013508A821002DB2FFF7B9
S31500000A2045FEA000002D25DDB3009C4608AB181836
S31500000A30002320221C00521B6146994212D1012438
S31500000A407300029308AAB300D3180393019B002BEB
S31500000A5048DA06ABA4003200E1580498FFF76CFEB2
S31500000A6029B0F0BDF958A9402143FC58C150D440E3
S31500000A700433E1E708AB320039001818FFF75CFED3
S31500000A80DDE706A8A10009589700C85908A97958B2
S31500000A905918411A884202D088429B415B4206A8F7
S31500000AA0405901320590C15152B202998A42E8DB9F
S31500000AB0E41A63425C4108AD31002800FFF736FDB9
S31500000AC0721EB3005B5992005159DB070B43039822
S31500000AD053513100FFF72AFD0198E4B2013803B201
S31500000AE00193B3E7012100220D1B1300AD00DCE7E3
S31500000AF01F00008070B5002604001D0090B014ABE6
S31500000B009E5768463300FFF741FD33002A006946C9
S31500000B102000FFF763FF10B070BD30B51C00002346
S31500000B20050091B06846E356AC34FFF72FFD6946E1
S31500000B3028002368984711B030BD10B513000A008D
S31500000B40FFF7EBFF10BDFFFFF0B50027DF5797B0AB
S31500000B50050004911000390014000393FFF7B1FD5E
S31500000B60002800D092E0039A049906A8FFF7E5FF53
S31500000B70039B290006AA0EA8FFF7CFFF06A90800C7
S31500000B80039AFFF7DAFF0499039B08002200FFF798
S31500000B90C4FF21002000039AFFF7CFFF039B22002A
S31500000BA01E1D3300290028000097FFF7EDFE3300D5
S31500000BB02200210020000097FFF7E6FE3300220006
S31500000BC0290020000097FFF7F7FE220029002800E1
S31500000BD0039BFFF7A2FF33002A002900200000979D
S31500000BE0FFF7D2FE33002200290028000097FFF706
S31500000BF0CBFE2B68DB074BD53B00320029002800D3
S31500000C00FFF777FC390005902800FFF78FFC234B90
S31500000C10059AFB189B00EB181968D2070A431A605D
S31500000C2029002000039AFFF788FF330021002000E7
S31500000C300EAA0097FFF7C0FE3300210020000EAA7F
S31500000C400097FFF7B9FE0EA90800330022000097AF
S31500000C50FFF7B2FE29002800039B0EAAFFF75DFFEF
S31500000C6006AA3300100029000097FFF7A5FE3A00F8
S31500000C7021002800FFF760FD3A0020000499FFF7E5
S31500000C805BFD3A00049806A9FFF756FD17B0F0BDC4
S31500000C9039002800FFF74AFCC2E7C046FFFFFF3FC6
S31500000CA0F0B58DB0040015000E001C22002105A829
S31500000CB001F059FE032304930023EB562A0031006A
S31500000CC020000393FFF739FF039B2F1D210020000F
S31500000CD0009304AA3B00FFF76FFE2B0032002100B1
S31500000CE02000FFF71AFF2A00039B21000093200033
S31500000CF03B008432FFF748FE0DB0F0BDF0B50F00A3
S31500000D000600A3B01900380015001C00FFF7D9FC37
S31500000D1028B121003000FFF7C9FC23B0F0BD39002F
S31500000D200127220002A8FFF707FD220029000AA8D2
S31500000D30FFF702FD210012A8FFF7B8FC21001AA850
S31500000D401297FFF7B3FC22000AA902A8FFF7FFFCDF
S31500000D5028B92200300012A9FFF7EEFCDDE7029B5E
S31500000D6001933B4209D1210002A8FFF7DFFB2200D5
S31500000D70290012A8FFF7EAFBE5E70A9B01933B422D
S31500000D8007D121000AA8FFF7D1FB220029001AA8E3
S31500000D90F0E7230000281CDD02A90AAA0800FFF7D5
S31500000DA0FBFC210002A8FFF7C1FB22001AA912A82A
S31500000DB0FFF7CDFC002805DA12A923002A00080057
S31500000DC0FFF797FB12A9230008001AAAFFF7E4FC15
S31500000DD0CDE70AA902AA0800FFF7DEFC21000AA84F
S31500000DE0FFF7A4FB220012A91AA8FFF7B0FC0028FF
S31500000DF005DA1AA923002A000800FFF77AFB1AA9C8
S31500000E002300080012AAFFF7C7FCBEE70048704798
S31500000E106C2C0000F0B516001C0007000D0089B010
S31500000E201A0031006846FFF788FE23006A4639003B
S31500000E303800FFF772FE2300320069466846FFF766
S31500000E406CFE23006A4629002800FFF766FE09B0FB
S31500000E50F0BDF0B5140006001D008DB0129B020017
S31500000E601B7803915BB20293129B21001F1D029B0C
S31500000E7004A800933B00FFF79FFD04A90800129AFF
S31500000E80FFF75BFE31003000129B04AAFFF745FE18
S31500000E9021002000129B04AAFFF73FFE029B2900B7
S31500000EA02800039A00933B00FFF786FD2900129A5B
S31500000EB004A8FFF742FE029B04A932000800009333
S31500000EC03B00FFF779FD029B04A92200080000936E
S31500000ED03B00FFF771FD029B3200210020000093CA
S31500000EE03B00FFF769FD039922000800129BFFF7FC
S31500000EF014FE029B31002000009304AA3B00FFF77A
S31500000F005BFD220029002800129BFFF706FE029BCC
S31500000F1029002800039A00933B00FFF74DFD2000AF
S31500000F20029A04A9FFF708FC0DB0F0BDF8B5032737
S31500000F301400D31C0E00D9173940C918891049B2BC
S31500000F400500FFF7B3FB621E00239446A34200DBB5
S31500000F50F8BD6246D21A1100F05C3A40D2009040C9
S31500000F60B94369180A680133104308605BB2EDE7BC
S31500000F70F7B51E0001910223F45E050021001F2033
S31500000F801F31CB1703405B1807215B110093E31D4C
S31500000F90DC170C40E418E410944200D914006B46A8
S31500000FA00027DF5728003900FFF780FB22002800C2
S31500000FB00199FFF7BBFF0222B35EE4009C421AD9F7
S31500000FC0202240F2000CE41A009B121B9B00EB1837
S31500000FD00092043B191D8D420ED324363A00290097
S31500000FE03000FFF7B4FB012805D03B003200290092
S31500000FF02800FFF7D1FBF7BD186862460100E14003
S315000010001143009A196090408446E2E7F0B5FFB0BC
S3150000101007911F210024849F0390059309920223C0
S31500001020FA5E3C571F32D3170B409B185B115BB21D
S315000010300293013B9B0004930023049926AA8B503C
S3150000104001224EAD56AE4B518B51BA5601006EA8D9
S31500001050FFF76CFFA20094460122A30008936EAB33
S3150000106063440693BA56039B06989918FFF75EFFEA
S3150000107001222800BA560599FFF758FF0122059B61
S31500001080BA5630009918FFF751FF21002800FFF7E4
S3150000109018FB10B100207FB0F0BD21003000FFF733
S315000010A010FB05900028F5D13B00243329001800D9
S315000010B0029A0393FFF74BFB0128EBD13100029A0A
S315000010C00398FFF744FB0128E4D13100029B039A01
S315000010D01EA8FFF713FE049B059A0EAE9A51300028
S315000010E03B00099A0799FFF743FF029B3100300046
S315000010F000931EAA039BFFF7FDFC029B29000093A9
S315000011005EAD039B1EAA16A8FFF7F4FC280022007A
S315000011106EA9FFF711FBA300EB1818002200069931
S315000011200493FFF709FB3B0044331900220036A85D
S315000011300693FFF701FB069BA20099183EA8220022
S31500001140FFF7FAFA29003B1D36AA1EA8009407935A
S31500001150FFF732FC2A00049B3EA936A80097FFF74A
S3150000116078FE1EA9080023003A1DFFF7C7FD2800D8
S315000011701EAA3B000499FFF74DFE059B02990A93B0
S31500001180069B30000B936EAB0C930D95FFF7B2FAEE
S315000011900299049016A8FFF7ADFA6B461D8A049BC8
S315000011A0834200DA051CABB20493013B1DB2290051
S315000011B03000FFF795FA431E98412900060016A84D
S315000011C0FFF78EFA431E9841400006430AABB6006D
S315000011D0F6582200310026A8FFF7AEFAA300F11850
S315000011E022002EA8FFF7A8FA21001EA8FFF75EFA34
S315000011F001231E93049B9D1E2DB2002D20DA1EA9ED
S3150000120008002300079AFFF779FD1EAA2EA926A833
S315000012103B00FFF7FFFD029A039826A9FFF797FA0E
S31500001220012805D026A90800029B039AFFF7B4FA05
S3150000123022004EA926A8FFF79EFA434258412AE704
S315000012403B00A4331E681EAA3B002EA926A8B04761
S3150000125029000EA8FFF744FA431E9841290006000C
S3150000126016A8FFF73DFA431E984140000643B60014
S315000012700AABF65826B32200310036A8FFF75CFA0F
S31500001280089B2200F1183EA8FFF756FA3B001EAA5B
S315000012903EA936A8FFF7BEFD079B36AA26A946A893
S315000012A00094FFF789FB2EAB26AA3EA936A8009725
S315000012B0FFF7CFFD1EA93B00080046AAFFF72DFC4D
S315000012C0013D99E7F0B50368A3B0079343680F00A3
S315000012D00893836800210993C3680A9303690B93F3
S315000012E043690C9383690D93C3691C000E930D9B90
S315000012F005930C9B02930B9B00930A9B0493099BFB
S315000013000393089B0193079B9C467D186B787A5C38
S315000013101B021343AA78062612041A43EB780B2500
S315000013201B061A4312BA12ABCA50009BEB41009D32
S31500001330F5415D40009B1336F3415D406B4B009ECB
S31500001340CB181B680431D218AA18009B029D1D40B9
S31500001350059BB3436B40D3181B190D226446D44139
S31500001360022522006446EC41654654401622D541CA
S31500001370019A6C40039D039E6A4065462A40019D82
S3150000138035406A40A418049A04969A181B19059CBD
S31500001390402900D095E05549069110210491049901
S315000013A00C00013404940F24049D2C40A40012ADBB
S315000013B0675907243E001225E6413C00EC41664091
S315000013C00C00033D0E342C40A40012AD65590F9657
S315000013D02C001126F4412E0010941324E64134000B
S315000013E0AD0A109E10950F2574400F260D40093149
S315000013F03140AD0012AE89008959AE59FF088919EE
S3150000140011960F9E7E408E191099019F61407118AA
S3150000141012AC2951062415001600E5410534E641B3
S31500001420192475401600E641009C7540029E144042
S3150000143096436640069CAE19246C1D003619761834
S3150000144005990F9476181C000221CC410B31CD4131
S3150000145016216C401D00CD4161466C40019D6940DE
S31500001460654619403D406940641803993419771858
S3150000147006990431069101990391029905910499FF
S31500001480402929D107990C1908990460CB184360A3
S315000014900199099B63448C4683600A9B6344C3603D
S315000014A00B9BDF190C9B07619A1842610D9B009AF2
S315000014B09B18029A836194460E9B6344C36123B0D2
S315000014C0F0BD029D0595009D0092019A029503923A
S315000014D062469C46019218E7009900920291614685
S315000014E03A009C460191230059E7C0461C2D000096
S315000014F010B50400A0B17022002100F0A3F801206D
S31500001500084B2360084B6360084BA360084BE360FD
S31500001510084B2361084B6361084BA361084BE361E9
S3150000152010BDC04667E6096A85AE67BB72F36E3CBE
S315000015303AF54FA57F520E518C68059BABD9831F98
S3150000154019CDE05BF7B504000D0058B1080049B1AC
S315000015508B1801932AB140F200260027019B9D4279
S3150000156001D10120FEBDA36E5A1CA2662978E3189C
S31500001570283319703F2A0CD9210020002831FFF7A3
S31500001580A1FE0023A366226A636A92197B41226246
S3150000159063620135E2E7F7B50C000190002850D0F0
S315000015A0080000294DD000278B6E086A496ADE00C4
S315000015B0801979418022250020626162581CE31857
S315000015C02833A06628351A7038280AD9403A121AE4
S315000015D03900281800F036F829002000FFF772FEBF
S315000015E0A7663822A06E0021121A281800F02AF8E1
S315000015F0236A20001ABA62662200636A6332137095
S31500001600190A013A1170190C013A11701B0E013AB0
S3150000161029001370FFF756FE0198220001002031C1
S3150000162008CA1D0E05701D0C45701D0A8570C37015
S3150000163004308842F4D120007022002100F002F824
S315000016400120FEBD10B501F08EF910BD036870B51E
S315000016500400CD1A002D0EDD00269E571878002EA8
S315000016600CDB581C20601B78136023680020C91A05
S3150000167013688B4201D96020404270BD7F263040FE
S315000016800138032831D801F01FF902091420012D71
S31500001690F1D05878023310602360E6E7022DEADDC8
S315000016A098785E780002304340BA80B21060033307
S315000016B0F2E7032DDFDD58789D7800042D022843DC
S315000016C0DD78043328431060E6E7042DD3DD9E78E9
S315000016D05878DD783602064318792D042E43000625
S315000016E0304300BA10600533D6E76420C4E770B50E
S315000016F004680D1B002D07DD25789D4207D10134B6
S315000017000460FFF7A3FF70BD60204042FBE7622044
S31500001710FBE770B5032304001500FFF7E8FF18B9CF
S315000017202B6813B96820404270BD013B2B602368CB
S315000017301A78002AF6D101332360F5E7F0B585B0B3
S3150000174001921F0003AA302305000E00FFF7CFFF0A
S315000017500400D8B92B68F61A002E2FDD1978019AE5
S31500001760280002C203995E1831000623FFF7BFFF67
S31500001770040058B92B68019A936052689B182B6035
S31500001780B34206D10C21380000F01CF8200005B049
S31500001790F0BD3A001978013302C2280031002B60EF
S315000017A0FFF754FF04000028F0D12B687A68BB606D
S315000017B09B182B60B342E9D0663CE7E7602464429D
S315000017C0E4E7FFFF0A0010B519B1024B00211B68C0
S315000017D0984710BD4005002010B501F0ADF810BDCA
S315000017E070B50C00150000F0DCFC6519AC4201D1A7
S315000017F0012070BD0134631E1B788342F6D00020A1
S31500001800F7E70723806818389843103870470300B5
S315000018100120042B05D0052B04D101394B1E99411B
S3150000182008007047581A43425841FAE7030010B5BA
S31500001830080021B1002012B11800FFF7D1FF10BD3A
S3150000184070B50C00012311002200050000F035FCE4
S315000018500122002808DB21002800FFF7E7FF02002D
S3150000186020B1032300222370100070BD2378013BB2
S31500001870591E8B4101332370F6E7072310B58268A2
S31500001880183A9A43FFF7DCFF10BDFFFF70B50C0056
S31500001890816886B01023103902AA050000F00DFCFD
S315000018A0002802DA012006B070BD1022280002A925
S315000018B0FFF796FF88B3032323702800FFF7A1FFE5
S315000018C06B46DE1D010001233200280000F0F5FB07
S315000018D00028E7DB0F22337831001A401B096270BB
S315000018E0280001222371FFF77BFF10B96378042BD0
S315000018F003D901236370002323710723AA682800F4
S31500001900183A9A43083AA11CFFF79AFF0028C9D152
S315000019102800E11CFFF7B1FFC5E71022044902A821
S3150000192001F00AF8431E984101302070C5E7C04611
S315000019301C2E000037B50D00C0B201A900F08AFBCD
S31500001940012438B929000198FFF7A0FF0400019887
S3150000195000F0B2FB20003EBDF0B587B0012002A921
S31500001960FFF7E8FF002834D104AC21000230FFF76E
S31500001970E1FF01282BD103232370E37002AB1D780E
S31500001980DB7826780093E378174C019302AB9F78B7
S3150000199029002078FFF73BFFF8B131006078FFF7A8
S315000019A036FFD0B1A378042B02D0009A934214D10B
S315000019B0E378042B02D0019A93420ED12379042BAB
S315000019C009D16079831E022B03D807B0F0BD002829
S315000019D0D4D0FF20F9E7BB42F3D0044B06349C4237
S315000019E0D6D10120F1E7C0462C2E00003E2E000085
S315000019F0F0B50C0085B0110001900223200003AA67
S31500001A00FFF775FE0600E0B9039D1F2D0DD92900CD
S31500001A102022236820390198591800F09BFF23687B
S31500001A205B192360300005B0F0BD20277F1B010045
S31500001A303A00019800F097FF019B2A002168D81907
S31500001A40EBE703267642EDE7F0B59BB0039320ABB8
S31500001A501B781600384ADB000D0099589B185B6806
S31500001A6007001B68059106AAC91805A83023FFF7C9
S31500001A703EFE08B101205BE0059B069A05A89C186E
S31500001A8021000AAB07AAFFF759FE0028F2D1089AEF
S31500001A90072AEFD12949099800F04EFF0028E9D11D
S31500001AA00B9A082AE6D126490C9800F045FF002833
S31500001AB0E0D1210006AA05A8FFF72BFE0028D9D100
S31500001AC0069A059B9B189C42D4D1412AD2D1039BEE
S31500001AD007AAF4182100302306A80696FFF707FE8A
S31500001AE00028C7D1069B079A9B189C42C2D32200A6
S31500001AF006A90AA8FFF77CFF0028BBD1220006A989
S31500001B0012A8FFF775FF0028B4D1202DB2D1059C8D
S31500001B102378042BAED1FFF779F9013400900AAB94
S31500001B202A0039002000FFF771FA0138431E984158
S31500001B3040421BB0F0BDC046042C00003E2E000003
S31500001B40462E0000F8B513000E0017000021020013
S31500001B50040000F019FA050048B922003B000121F3
S31500001B6020002C3200F010FA08B106B1050028005A
S31500001B70F8BDFFFFF0B5324B8BB0060000200D001C
S31500001B801C6800F005FB08A9C0B200F063FA002843
S31500001B903FD12C24290000F0FBFA6C43C0B209A9FE
S31500001BA0341900F057FA002836D02C236B43F71867
S31500001BB03A6907931000102318401A4237D140F2B1
S31500001BC0001301931F4B220000930100089B049011
S31500001BD003900290FEF74CFA0400079A1A4B9259AA
S31500001BE008989A420CD13A89FB68D1438B4207D8B0
S31500001BF09B188268934203D2144B1B68A34205D0FC
S31500001C00ADB10021826800F07BFA2C00089800F044
S31500001C1053FA20000BB0F0BD099800F0C2FA070095
S31500001C20099800F049FA2300221D934201D10124AC
S31500001C30ECE70133591E0978B942F6D0B5E7C0463C
S31500001C4044050020E80D00203DB8F396C4050020A9
S31500001C5073B53C26426A040001A90120019600F0F2
S31500001C607BFA012578B9019B226DA36201A9023096
S31500001C70019600F071FA050038B9019B206A636588
S31500001C8000F064FAE065280076BD0925FBE7FFFF52
S31500001C9001230360024B436000238360C3607047E7
S31500001CA001010001427903000020012A06D11A68C9
S31500001CB0012A03D118790138434258417047FFFF82
S31500001CC0F7B50E00002440F2004700920193099BED
S31500001CD09C4201D300200DE0099B1D1BBD4200D98B
S31500001CE03D00019B3000E118084A2B0000F0E5F9A1
S31500001CF008B10120FEBD089B044AE11800982B009C
S31500001D0000F0E6F90028F4D16419E0E7280600207F
S31500001D10F0B58DB0049100210400884B1B68039335
S31500001D20874B4362874B0365080000F031FA2100B8
S31500001D30C0B2203100F08EF930BB012100F028FA44
S31500001D402100C0B24C3100F085F90290E0B92000C4
S31500001D502500FFF77DFF5835E8B900222000110065
S31500001D60FFF7F0FE060028BB200000F026F908B3B6
S31500001D7008A8FFF78DFF08A8FFF794FFE8B940F21F
S31500001D80FF61714B714A03E040F2AF71704B714ACB
S31500001D90714800F084FC01232B709842DDD12B782A
S31500001DA004AAD375042B2ED8012B38D82DD0FF23A7
S31500001DB02B702AE001232B70F1E704ABDF7D012FA6
S31500001DC014D13000FFF7C8FD831E0600022B0BD886
S31500001DD039002000FFF7CEFE604B1B68984203D007
S31500001DE03E00012800D004362E70D8E701212000DD
S31500001DF0FFF7C0FE594B1B68984201D00523DAE76E
S31500001E0004ABDB7DD7E7052BD1D1230058331B78F4
S31500001E10FF2B64D140F60F014B4B4E4AB8E7012029
S31500001E2006A900F017F920B140F24641484B4C4A4A
S31500001E30AEE7022007A900F00DF9050020B140F237
S31500001E404A41434B464AA3E70600A36A0593059B0E
S31500001E500698B34214D10023020007992000019589
S31500001E600093FFF72DFF0100A0BB236D07985A686A
S31500001E7000F046F9A8B140F2A541354B384A87E74C
S31500001E80626AF300D3185F6829003A0000F038F957
S31500001E9020B140F250412E4B314A79E7ED19013617
S31500001EA0D5E7636D226D013BDB00D31811681A6814
S31500001EB00798511A5A6800F023F920B140F2AD4153
S31500001EC0234B274A64E7069800F0F6F8079800F0D7
S31500001ED0F3F89AE740F201611D4B224A58E7012BBD
S31500001EE022D100212000FFF745FE03901B4B1B6803
S31500001EF083420DD11022002108A800F034FD236A88
S31500001F0004995A780A715B680C600593059A8A6091
S31500001F10E06C00F0D1F8206A00F0CEF8029B03B125
S31500001F20039303980DB0F0BD0021200008AAFFF727
S31500001F3009FE0028D5D00290EAE7C04644050020F5
S31500001F40280A0020080C0020552E0000AE2E0000A6
S31500001F504F2E0000CC2E0000572E0000C405002096
S31500001F608A2E00009A2E000070B5064D04006022ED
S31500001F700021280000F0F7FC21002800FFF7C8FE2A
S31500001F8070BDC046C805002013B50020140000F03F
S31500001F90FFF801A9C0B200F05DF80100012059B9AF
S31500001FA020232200019800F088F80400019800F030
S31500001FB083F82000431E984116BDF7B5876A0400D2
S31500001FC000203C2F12D8636D01933C2B0ED80100E4
S31500001FD0030002000500BA4209D3019EB34206D3AC
S31500001FE00020BA4202D1981B43425841FEBDA84286
S31500001FF012D1D600B446666A0132B44466467668A3
S31500002000B446DE006044B446266D0133B4446646E9
S315000020107668B4466544DEE7A8420CD2D600B446DC
S31500002020666AB44466467668B446604402290FD0B0
S3150000203001210132CFE7DE00B446266DB444664680
S315000020407668B4466544012902D002210133C2E70D
S315000020500020CBE770B5114E050033780C0043B96C
S315000020600F4B19680F4B186800F032FA90B901232C
S3150000207033700D4B012D0AD0022D07D00023D42139
S3150000208023600A4A0A4B0B4800F009FB0C33002078
S31500002090236070BD01204042FBE7C046E80E0020E9
S315000020A0802A0000842A0000482F0000382F0000F4
S315000020B0DC2E0000EA2E0000704710B50400100068
S315000020C01A006368C91800F045FC002010BDFFFF28
S315000020D070B50D0011004268EFF31084012686F3F7
S315000020E01088467800207F2E04D1044852190068D3
S315000020F000F03FFA84F3108870BDC046842A0000C1
S3150000210070B50D004178030006207F2915D1596866
S31500002110EFF31084012383F31088084BD20A186862
S31500002120491900F013FA84F3108830B140F2BD115A
S31500002130034B044A044800F0B2FA70BD842A00003A
S31500002140142F0000272F0000EA2E000040787F3869
S31500002150434258418000704730B50C4B012802D0ED
S3150000216002280FD10C339C6840F600050023D802E4
S31500002170844202D800200B6030BD106055600133E8
S315000021800832F4E700235B78FFDEC046482F0000E4
S31500002190012011B1814201D100187047012040424F
S315000021A0FBE7FF207047FFFF70B5074D00242B7833
S315000021B02BB1064B186800F091F810B92C7020006E
S315000021C070BD01246442FAE7E80E0020842A00006C
S315000021D081F30888BFF34F8FBFF36F8F0047FFFF70
S315000021E070B503681C898368E41826686568FFF77C
S315000021F0DBFF0022044B31009C60044B28009A80D0
S31500002200FFF7E6FF70BDC04600ED00E0000D0040A0
S31500002210EFF31080012383F31088064B196819B970
S31500002220054AD1704031D1701A6801321A6080F3C4
S31500002230108870472C0F0020000D0440EFF310812A
S31500002240012383F31088074B1A6812B11A68013A02
S315000022501A601A681AB9044BDA708032DA7081F3A0
S31500002260108870472C0F0020000D0440030A70B53B
S31500002270C5B2084C1801CB0307D543199B00E65895
S31500002280054A16400A40E650E250401980002150A7
S3150000229070BDC04600080440FFFFFEFF70B5050094
S315000022A00024FFF7B5FF2B88A34202D8FFF7C6FF2D
S315000022B070BD6A68E300D318988819680134FFF77F
S315000022C0D5FFA4B2EFE7FFFF10B5034B036008008C
S315000022D0FFF7E4FF002010BD54524F500023112297
S315000022E0036043689A56130021330DD01F2153090A
S315000022F00A401E3991400A00203304499B005A5077
S31500002300BFF34F8FBFF36F8F0020704700E100E0EF
S31500002310030010B5094AC0339B009958084C214068
S3150000232099509B58BFF35F8F1F22430910401E3AF6
S315000023308240044960339B005A5010BD0060004043
S31500002340FFFFFEFF00E100E0304B70B51968304D2D
S315000023500B000200286A2F4C4001400F8340C34007
S315000023602D48D360834207D8A34205D02B48834229
S3150000237002D02B48834245D1286A2A4D4001400F9E
S315000023808140C14028481B18B3FBF4F0AB4235D856
S31500002390254BD060C918B1FBF4F140F283530620F7
S315000023A04B43B3FBF0F3136140F276334B43B3FB7D
S315000023B0F0F3536158234B43B3FBF0F393611B4B8C
S315000023C000244B43B3FBF0F3D361194B91604B43AD
S315000023D0B3FBF0F31362174B4B43B3FBF0F35362BB
S315000023E043F6C073144AD454144B1A78012A03D006
S315000023F001221A7000F00CFB200070BDC307C7D580
S315000024000130C5E740F2F614F6E7C046B80F0020E3
S3150000241000E0014040420F00FF083D0080841E009E
S31500002420C0C62D003F8AF7013F420F00B86A05007B
S31500002430D066050068ED220000C07E4090C07E4058
S3150000244043F6B07310B504000F4A1049D1528168A3
S31500002450062000F0DDFA102000F0CAFA0320A16879
S3150000246000F0D6FA63681A7862B111241C5720006E
S31500002470FFF74EFF1F22630914401E3AA24004498B
S315000024809B005A5010BDC04600C07E4080AAFFFF88
S3150000249000E100E070B50400FFF7D2FFE3683F20DB
S315000024A040F2D81209491F2B0BD9203B5B081F337A
S315000024B08D58034085432B4320008B5000F090FA43
S315000024C070BD1F25013B2B408D58F3E700C07E40B1
S315000024D0F8B50B780400416013B311254D57184B1E
S315000024E0AA0803209200D2180B7CFF2140F2003785
S315000024F02840C0009B010B4081408340D6592800EC
S315000025008E433343D3510F4BAA00D450FFF700FF3D
S315000025101F2001222840824009496B099B005A501E
S3150000252023000022343320001A70FFF70DFF28B96C
S315000025302000FFF7AFFF08B9034B2360F8BDC04684
S3150000254000E100E0300F00204E45504F030010B56B
S31500002550040000203433187080231630DB029942C1
S3150000256006D2C90A40F600032000C90200F048FA64
S3150000257010BD70B500248026050034300470F602C4
S315000025802000B24202D2280000F04AFA70BDFFFFD6
S31500002590094B1A7882420DD0084A12781AB90849AE
S315000025A00A78D207FCD51A78D206FCD418701A78A5
S315000025B0D206FCD47047C046A0E0014036E0014098
S315000025C03CE00140064B0749DA1DD27F1B6A9200A8
S315000025D052585B015B0FDA401300034A13607047E1
S315000025E000E0014050050020B80F002040F2FE3305
S315000025F070B51B4A1B4D0024EA5243F6C8731A4EA7
S315000026001A4AF4541A4B1A601A4ADC605A6048F2A5
S3150000261000021C619A60FFF7D5FF40F28043012259
S315000026202000EA54FFF7B4FF134B144A1C701378CA
S31500002630DB07FCD50124124B00221C70114B1C70C9
S3150000264040F200132B62104BDA77FFF7BBFF40F224
S31500002650FE330E4AEA5243F6C873F45470BDC046C0
S3150000266003A5FFFF00E0014000C07E40006CDC02D5
S315000026705005002000127A0036E001403CE001409F
S3150000268031E00140C4FF7E4007E0014000A5FFFFA6
S315000026900022014B1A70704728400440704700BE64
S315000026A0FEE7FFFF40F2401370B500240126094AF9
S315000026B0D55AADB22B00E340E0B2334204D0064B0C
S315000026C0A200D35803B198470134102CF2D1034B22
S315000026D05D8670BD00600040EC0E0020FE6000408C
S315000026E000230649064A9A1810781A00C03292004A
S315000026F001335050202BF5D17047C0460060004092
S31500002700602F000030B5EFF31082012383F31088A9
S3150000271098400B49435A1BB10B5A013B9BB20B52D3
S315000027200B5A53B940F2FE31064C074B655A185AFC
S31500002730064B2B4383439BB2635282F3108830BD12
S31500002740B00F002000E00140802F000000A5FFFF31
S3150000275070B5EFF31081012383F3108898400A4A7D
S31500002760835A53B940F2FE34084D094E2B5B865B03
S3150000277033434AF2005633432B53135A01339BB269
S31500002780135281F3108870BDB00F002000E00140A5
S31500002790802F000000BE704710B500F003F8FDF76B
S315000027A0A3FEFEE7F7B5384B384F00209F60FDF7D4
S315000027B047FCFFF71BFF6B460024DE1D347001202B
S315000027C03378FFF7C5FFEFF31081012585F31088F5
S315000027D02F4B30489A6802409A609A6881F31088B5
S315000027E02D490A68D207D20F32700A68D207D20F73
S315000027F032700A68D207D20F3270EFF3108185F378
S31500002800108880229868520502439A609B6881F37B
S3150000281010882800FFF776FF2800FDF711FC1F4BF4
S315000028201F4A9C801F491A803A681F4851189960B0
S3150000283041F20001DA601D4A51841D4A9D80210043
S31500002840121A00F090F81B481B4A1C49121A00F095
S3150000285081F81B4D1B4BED1AAD10AC420CDBFFF79C
S31500002860B1FEFFF715FF0220FDF7EAFBFFF738FF81
S315000028700020FFF713FFF7BD124AA3009B181B6841
S3150000288098470134E9E7C04600ED00E0000000008B
S31500002890FC6F0440FFFFFFEF00080440000D0040FE
S315000028A000A5FFFF00F8FFFF68050020FE6000405E
S315000028B0BC0F002000000020500500208C2F0000D7
S315000028C04C0500204805002002B47146490849001D
S315000028D0095C49008E4402BC7047C046F0B54FF60D
S315000028E0FF75CE46474699462B0015400E00290037
S315000028F00340140C80B50700000C5943454363435D
S3150000290060435B190C0CE4188C46A54203D980235E
S315000029105B0298464044230C61461B1820044FF680
S31500002920FF740C40494679437243C9180019891847
S31500002930C0BCB946B046F0BD30B500240139A2424C
S3150000294001D1002005E0035D01340D5DAB42F6D0F8
S31500002950581B30BD002310B59A4200D110BDCC5C87
S31500002960C4540133F8E703008218934200D170473C
S3150000297019700133F9E7FFFF4275696C74207769B6
S3150000298074682052656E6573617320416476616E6A
S3150000299063656420466C657869626C6520536F6672
S315000029A07477617265205061636B61676520766537
S315000029B07273696F6E20342E352E3000342E352E0C
S315000029C03000000000000504F8B5C046F8BC08BC9D
S315000029D09E467047F8B5C046F8BC08BC9E46704790
S315000029E001B40248844601BC604700BFB90000201C
S315000029F001B40248844601BC604700BF9100002034
S31500002A0001B40248844601BC604700BFBD020020F5
S31500002A1001B40248844601BC604700BF8100002023
S31500002A2001B40248844601BC604700BFD1030020C0
S31500002A3030203D3D20626F6F745F676F282672738A
S31500002A407029002E2E2F7372632F68616C5F656E7E
S31500002A507472792E63006D6375626F6F745F717542
S31500002A6069636B5F736574757000FFFF000000009B
S31500002A70000000000000000000000000FFDF000072
S31500002A806C2A00008C0500202E000000902A000011
S31500002A90040000000C000000040000000D0000000F
S31500002AA0040000000E000000040000000F000000FB
S31500002AB00500000000010000050000000101000003
S31500002AC005000000020100000500000003010000EF
S31500002AD005000000040100000500000005010000DB
S31500002AE005000000060100000000010008010000CA
S31500002AF0040000000B010000040000000C010000AF
S31500002B00040000000D010000040000000E0100009A
S31500002B10040000000F010000050000000102000093
S31500002B200400000006020000040000000702000086
S31500002B300400000008020000040000000C0200006F
S31500002B40040000000D020000000001000003000068
S31500002B50040000000303000004000000040300005A
S31500002B600400000005030000040000000603000046
S31500002B700000000007030000050000000C04000030
S31500002B80040000000D040000050000000E04000013
S31500002B90040000000F04000004000000000500000F
S31500002BA0040000000305000000000000040500000A
S31500002BB004000000050500000500000000060000F6
S31500002BC004000000020600000400000008060000E1
S31500002BD00400000009060000040000000A060000C8
S31500002BE00400000008070000040000000E070000B3
S31500002BF004000000080800000400000009080000A6
S31500002C00010000000C2C0000682C00003059301325
S31500002C1006072A8648CE3D020106082A8648CE3D8A
S31500002C20030107034200042ACB403CE8FEED5BA407
S31500002C304995A1A91DAEE8DBBE1937CD14FB2F249B
S31500002C405737E5953988D994B9D65AEBD7CDD530CB
S31500002C508AD6FE48B24A6A810EE5F07D8B6834CC8E
S31500002C603A6AFC538EFAC1FF5B000000082000019F
S31500002C70FFFFFFFFFFFFFFFFFFFFFFFF000000005A
S31500002C80000000000000000001000000FFFFFFFF41
S31500002C90512563FCC2CAB9F3849E17A7ADFAE6BCF8
S31500002CA0FFFFFFFFFFFFFFFF00000000FFFFFFFF2A
S31500002CB096C298D84539A1F4A033EB2D817D0377D0
S31500002CC0F240A463E5E6BCF847422CE1F2D1176B6B
S31500002CD0F551BF376840B6CBCE5E316B5733CE2B3E
S31500002CE0169E0F7C4AEBE78E9B7F1AFEE242E34F6D
S31500002CF04B60D2273E3CCE3BF6B053CCB0061D65AA
S31500002D00BC86987655BDEBB3E7933AAAD835C65A32
S31500002D10490B0000A10C0000D5070000982F8A423D
S31500002D2091443771CFFBC0B5A5DBB5E95BC2563917
S31500002D30F111F159A4823F92D55E1CAB98AA07D82F
S31500002D40015B8312BE853124C37D0C55745DBE7252
S31500002D50FEB1DE80A706DC9B74F19BC1C1699BE4D2
S31500002D608647BEEFC69DC10FCCA10C246F2CE92D62
S31500002D70AA84744ADCA9B05CDA88F97652513E9886
S31500002D806DC631A8C82703B0C77F59BFF30BE0C68D
S31500002D904791A7D55163CA0667292914850AB7271B
S31500002DA038211B2EFC6D2C4D130D385354730A65B8
S31500002DB0BB0A6A762EC9C281852C7292A1E8BFA28F
S31500002DC04B661AA8708B4BC2A3516CC719E892D1F7
S31500002DD0240699D685350EF470A06A1016C1A4197A
S31500002DE0086C371E4C774827B5BCB034B30C1C3979
S31500002DF04AAAD84E4FCA9C5BF36F2E68EE828F7438
S31500002E006F63A5781478C8840802C78CFAFFBE9051
S31500002E10EB6C50A4F7A3F9BEF27871C677C295F3AE
S31500002E2060D2EF7F3552500F2CB67980040104032F
S31500002E3004020401040104030103030401042A86B5
S31500002E4048CE3D0201002A8648CE3D0301070072A6
S31500002E5063203D3D2030002E2E2F72612F6D63754D
S31500002E602D746F6F6C732F4D4355626F6F742F62A5
S31500002E706F6F742F626F6F747574696C2F737263E2
S31500002E802F6C6F616465722E6300626F6F745F638F
S31500002E906F70795F696D61676500626F6F745F70EF
S31500002EA06572666F726D5F75706461746500626FDE
S31500002EB06F745F707265706172655F696D61676579
S31500002EC05F666F725F75706461746500636F6E74C0
S31500002ED06578745F626F6F745F676F004E554C4C18
S31500002EE020213D202A61726561002E2E2F72612FEE
S31500002EF06673702F7372632F726D5F6D6375626F89
S31500002F006F745F706F72742F666C6173685F6D614A
S31500002F10702E63004653505F535543434553532029
S31500002F203D3D2065727200666C6173685F61726513
S31500002F30615F657261736500666C6173685F61727B
S31500002F4065615F6F70656E00017F000000380000EC
S31500002F5000E00100027F00000018020000E001000E
S31500002F60000000000000000000000000000000005B
S31500002F70000000000000000000000000000000004B
S31100002F8001000200080010000000000024
S31500002F8C431E59180A4B70B51C000126FF3465798F
S31500002F9CD2B2B54365711D00060CFE3580B26E8249
S31500002FACFC336881080C89B258626983627570BDFE
S31500002FBC00C07E4013B5104901900B6B5B0612D511
S31500002FCC7F240E4B5A7D22405A7500225A75019069
S31500002FDC0B6B5B06D80F002B08DA019B2BB1019B00
S31500002FEC013B0193F4E7019B0BB9142016BD019B21
S31500002FFC013B0193E1E7C046FCC07E40FFC07E402A
S3150000300C4143032903D9890801390029FCD17047AA
S3150000301C40F28013A521064AD150C243054BD2B2C9
S3150000302C58705A7058705B78834200D1C04670470E
S3150000303C00C07E40FFC07E40F7B544F60033070063
S3150000304C43F6B0760E4C0820A55B0193FFF7E0FF24
S3150000305C0620B968FFF7D4FF0A4BADB2A353A35BA6
S3150000306C98B22BB9012D02D143F6C873E554FEBDB7
S3150000307C019B1BB1019B013B0193F0E71420F6E782
S3150000308C00C07E4000AAFFFF03000022343310B5B7
S3150000309C1A7043F6B073094A0400D35A0BB900F000
S315000030AC07FA0121064B20009A6A0A439A629A6A29
S315000030BC8A439A62FFF7C0FF10BDC04600C07E402F
S315000030CCFCC07E40F8B50500080016001F00FFF78F
S315000030DC71FF0400142804D12800FFF7D5FF200047
S315000030ECF8BD40F2F0133400044AD3581C401E427B
S315000030FCF5D02800FFF7C8FF3C00F0E700C07E4083
S3150000310C002310B5934200D110BDCC5CC4540133DE
S3150000311CF8E743F6C873002210B504001048C254F1
S3150000312C63681A787AB111221F219A5653090A40FC
S3150000313C1E3991400A0020330A499B005A50BFF3AE
S3150000314C4F8FBFF36F8F43F6B073074AC2520220FC
S3150000315CFFF75EFF0320A168FFF752FF10BDC046C4
S3150000316C00C07E4000E100E001AAFFFF37B5114A1E
S3150000317C114901900B6B1B0613D540F2DC137F250E
S3150000318CD4582C40D4500024D45001900B6B1B0601
S3150000319CD80F002B08DA019B2BB1019B013B019345
S315000031ACF4E7019B0BB914203EBD019B013B019337
S315000031BCE0E7C04600C07E40FCC07E4070B505000E
S315000031CC406AFFF7D3FF0400142804D12800FFF748
S315000031DC5BFF200070BD40F2F013064AD258DF3B6D
S315000031EC1400FF3B1C401A42F3D02800FFF74CFF9B
S315000031FC1824EEE700C07E40F8B514000F00050059
S3150000320C1E00FFF786FF210083223800FFF7B8FE69
S3150000321C0334AB69A1085943102240F2F813280075
S3150000322CFFF750FF38B9044B2800DB6A1B07DB0F8E
S3150000323C3370FFF701FFF8BDFCC07E40F8B5040003
S3150000324C16000F001D00FFF764FF01210A4A380023
S3150000325C53798B432900537171438422FFF790FEF7
S3150000326CE1691923112220007143FFF72BFF10B9D6
S3150000327C2000FFF7E1FEF8BDFFC07E40F0B585B03B
S3150000328C060002910392FFF744FF8323029C0193ED
S3150000329C01221E4F1E497B7913437B71039B03BB93
S315000032AC4FF6FF734B63CB6340F2DC13194A01995B
S315000032BC3000D150019B01330193FFF77FFF0122B0
S315000032CC7B79050093437B7118B9019B0434872BDA
S315000032DCDED13000FFF7B0FE05B90500280005B0B9
S315000032ECF0BD62782378120213434B63029BE31AF8
S315000032FC0C2B07D1029B039A987BDB7B1B020343A7
S3150000330C1343D0E7E278A3781202F9E7FFC07E40B8
S3150000331CFCC07E4000C07E4013B50C4C0A0C23004A
S3150000332CFE3389B25A8259810422010001A8FFF7A3
S3150000333CE7FE6B469A882300FC335A636A46D288AA
S3150000334CFF34DA638123637513BDC04600C07E402B
S3150000335CF8B51D0004000E001700FFF7DAFE012178
S3150000336CAD0825630025134AE7625379A6628B43A1
S3150000337C5371236BBBB10DB12800F8BDE16AA06A8D
S3150000338CFFF7CAFFA36A12220433A362E36A200082
S3150000339C0433E362236B2169013B23631823FFF794
S315000033AC91FE0500E5E7002DE6D12000FFF744FE6F
S315000033BCE2E7C046FFC07E4070B540F2D01340F243
S315000033CCC8160E4C0E4D82B9A259E358D20ADB0A26
S315000033DCC00AD202C90ADB02024319436A63E963D3
S315000033EC40F2DC138222E25070BDA259E3586A63A4
S315000033FC044A13401843E863F2E7C04600C07E4017
S3150000340CFCC07E40FF7FFFFFF8B5170005000C00DF
S3150000341CFFF77FFE9FB140F2D812C0200321124E57
S3150000342C2140B358002783431C0089010C43B45038
S3150000343C2800FFF701FE07B907003800F8BD012682
S3150000344C344063425C41E003084C39006379320036
S3150000345C33436371FFF7B0FF2800FFF7AFFE6379C4
S3150000346C0700B3436371E3E700C07E40FFC07E40B4
S3150000347CF7B501270E0004000C4D0192FFF749FE2B
S3150000348C6B7930003B436B7100220199FFF794FF77
S3150000349C2000FFF793FE06006B792000BB436B718F
S315000034ACFFF7CAFD06B906003000FEBDFFC07E4020
S315000034BC01B40248844601BC604700BF41240000A9
S315000034CC67290000FFFFFFFFAD0400008104000028
S31501010018FFFFFFFFFFFFFFFFFFFFFFFFFFFFFFFFE0
S31101010028FFFFFFFFFFFFFFFFFFFFFFFFD0
S705000027993A
