S00A0000484B2E7372656387
S214003900487B0020096F0100B16D0100056F0100C2
S214003910056F0100056F0100056F0100056F0100CE
S214003920000000000000000000000000056F01001D
S214003930056F010000000000056F01004D3F00000C
S214003940D14E01003D4E0100714F0100D9660100C5
S214003950D14E01003D4E0100714F0100CD4F0100D8
S214003960D14E01003D4E0100714F0100CD4F0100C8
S21400397019460100B5460100994701008548010037
S214003980555901003D4E0100714F0100CD4F010019
S214003990D14E010085530100E55F0100CD4F0100C7
S2140039A0D9660100000000000000000000000000D2
S2140039B00000000000000000000000000000000002
S2140039C0FFFFFFFFFFFFFFFFFFFFFFFFFFFFFFFF02
S2140039D0FFFFFFFFFFFFFFFFFFFFFFFFFFFFFFFFF2
S2140039E0FFFFFFFFFFFFFFFFFFFFFFFFFFFFFFFFE2
S214003E0010B540F62004C2F20004237863B940F2ED
S214003E100003C0F200032BB14FF2DC60C0F20100D9
S214003E2000E000BF0123237010BDC04640F200032F
S214003E30C0F2000310B54BB140F624014FF2DC602F
S214003E40C2F20001C0F2010000E000BF10BDC04693
S214003E5041F6DC6010B5C2F2000012F09FFA58BBC3
S214003E6041F6DC60C2F2000012F0BCFA20BB40F65D
S214003E703C034FF6FF72C2F200031968914203D961
S214003E800E4A88184FF6FF71186041F6DC60C2F2E1
S214003E90000012F03DFB78B941F6DC60C2F200008B
S214003EA012F08EFA40B941F6DC60C2F2000012F061
S214003EB0A5FA0300002003B1282010BD0100FFFF73
S214003EC040F64C03C2F2000310B54EF62C611860A3
S214003ED041F6DC60C0F20101C2F2000012F03AFBCB
S214003EE080B210BD70B540F64004050041F6DC60B7
S214003EF0C2F200042100C2F2000012F0CFFA70B93C
S214003F0040F2E832606840F63C036843B0FBF2F0EB
S214003F10C2F200031860FFF79BFF00B970BD2820AF
S214003F20FCE7C04641F6DC6010B5C2F2000012F0B5
S214003F3035FA43425841272340429843283010BD63
S214003F4010B50FF07DFA10BD7047C04640F63C0332
S214003F50C2F200031A6810B55AB14FF6FF718A42D2
S214003F6004D90B498C4662441A6010BDFFF770FFF7
S214003F70FBE741F6DC60C2F2000012F00FFA40F6F2
S214003F804C03C2F200031B68002BEED09847ECE708
S214003F900100FFFF10B5037903B110BDFFF7D6FF90
S214003FA0FBE7C04610B5FFF7BDFF40F65003012201
S214003FB0C2F200031A70FFF7C7FF10BD40F65003A9
S214003FC00022C2F2000310B543F6A5701A7040F640
S214003FD05403C0F20000C2F200031A60FFF770FF3D
S214003FE010BDC046F0B5C64600B5002841D0002931
S214003FF03FD0012240F654061300C2F20006346891
S2140040002340224238D00023012501E0052B20D092
S2140040102A0001339A402242F8D1052B19D040F6E7
S2140040205804C2F20004A04640F658049F00B84464
S214004030C2F2000440F2000C6546E55134682243A3
S2140040403260424602600A60CB60002080BCB84600
S214004050F0BD316800230120CA0702D4F5E7052B1E
S21400406007D0020001339A401142F8D10020052BF8
S214004070ECD14FF22700E9E740F65804C2F20004FC
S214004080A04601220027D5E7F8B5DE4657464E463D
S21400409045468B46E0B5924606001D0000285BD0DC
S2140040A00368002B58D01300013351D102235A461F
S2140040B040F650071A40904640F20109C2F2000747
S2140040C00AE0326814682C40AC4210D03A7872B9D4
S2140040D083F31088FFF734FFEFF3108389F310881B
S2140040E04246002AEDD1326812682A42EED083F3A7
S2140040F0108853463C78E4B2013326D100233B7047
S214004100EFF31082013383F310880A9B1BB13368E8
S2140041100A991B680B605B465B070ED482F3108817
S214004120013C63425C4160424FF201042040F0BC17
S214004130BB46B246A946A046F8BD336831681B6840
S2140041401D400B68AB430B60E8E7FFF7EBFED5E7D7
S2140041501000FFF7C7FEA9E74FF22700E7E7C046C3
S21400416010B590B1016881B1EFF3108C012181F395
S21400417010880168086802430A6003B11A608CF36D
S2140041801088FFF7E1FE002010BD4FF22700FBE786
S21400419088B1016879B1EFF3108C012181F31088A2
S2140041A001680BB1086818600B6893430B608CF3CA
S2140041B01088002070474FF22700FBE710B588B143
S2140041C003687BB1012140F65403C468C2F20003C1
S2140041D0A1401A688A431A600021202216F0FFFDCB
S2140041E0002010BD4FF22700FBE7C0464FF2240028
S2140041F07047C0460C2908D150B14AB140F202714E
S2140042004260018083600020704740F22070FBE728
S2140042102120F9E7F0B587B016001D006A46002396
S214004220D38105930C9B07000C00002B59D00D9BE7
S214004230002B45D023B2002B48DB012201217868F1
S21400424001F0DCF808B107B0F0BD00220221786862
S21400425001F0D4F80028F6D10D9B320001930C9B98
S2140042602100009378682B0002F08CF8FF230340AF
S214004270732B3CD00028E6D10D9B1A88022A33D92E
S2140042800C9B1B689918481E02390E78023A0D9945
S21400429092B204780A8004A90191009246F2633132
S2140042A048F20842002005F043FF0028CBD16B46B9
S2140042B01B8A24023443A342C5D040F20270C2E7F0
S2140042C012336B440D9323B2002BB6DA0D9B3200EB
S2140042D001930C9B2100009378682B0002F052F8A3
S2140042E0B1E705AB0C93A2E740F20670ABE70D9B77
S2140042F01B88012BF8D10E236B441A000421786822
S21400430001F02CFE00289ED16B46DB89042BEBD1F6
S2140043100C9B1B681B780A2BE6D80E4A9B00D358CA
S2140043209F4640F287708EE740F285708BE740F23A
S214004330847088E740F2837085E740F2827082E7F7
S21400434040F288707FE740F281707CE740F2807030
S21400435079E7C046D0C1010030B583B006AC2488EA
S214004360079D40680195009402F062F9FF23034020
S214004370072B03D0212B01D003B030BD40F20070D4
S2140043801843F9E710B582B0049C4068009402F028
S21400439087F9FF230340072B03D0212B01D002B05F
S2140043A010BD40F200701843F9E7C04618290BD13B
S2140043B068B162B140F201330380002343820233C6
S2140043C0426083820020704740F22030FBE72120C5
S2140043D0F9E7C046030010B5022906D003290AD023
S2140043E040F22330012903D010BD42750020FBE7C0
S2140043F000201A75F8E70D21406800F0FFFFF3E78C
S21400440030B585B000236A46050053810D2140F281
S21400441088424068039300F0F1FF040010B12000CA
S21400442005B030BD01220121686800F0E7FF0400F6
S2140044300028F4D101220221686800F0DFFF0400A2
S2140044400028ECD16A4650231372002353720A23C5
S2140044506B44019303AB009302AA02230021686811
S21400446001F090FFFF231A000240034203D0012A06
S214004470D5D00400D3E740F20634D0E7F0B557466F
S2140044804E464546DE461C000023E0B58BB01700BE
S21400449002AA05000E0006939381D381402C00D912
S2140044A0A4E008331A0022409046234200D09DE044
S2140044B00A00063B9A43952A0CD040F221309329F5
S2140044C006D00BB0F0BCBB46B246A946A046F0BD2F
S2140044D00023AB740023EB74402C00D189E000224B
S2140044E00121686800F08AFF0028EAD10022022134
S2140044F0686800F083FF0028E3D107AB02AA944661
S2140045001E709A46162363440522002118009B4617
S21400451016F065FC0F2323405A1E93419946220944
S21400452091444A463900584616F050FC07204B4640
S214004530020002339BB202932300224091462033AE
S214004540DBB2039252460521537068684A4600F073
S21400455055FF0028B5D14A460321686800F04EFF93
S2140045600028AED105AB019306AB0093524600215E
S214004570029B686801F006FF0022814605216868F4
S21400458000F03CFF00289CD14346002B61D14A46F0
S214004590FF331340032B00D199E0732B5DD04846C0
S2140045A0002800D08DE702ABD8814346002B57D0B9
S2140045B002AB9C89012C50D1069B1B785B0700D46C
S2140045C0C8E0972E49D03B78882B46D1A87C03229A
S2140045D008302818791C16F0F9FBAB7C0333AB7453
S2140045E0069B149A1B78137000206AE740F221306D
S2140045F067E701220121686800F000FF002800D06C
S2140046005FE701220221686800F0F8FE8146002874
S21400461000D056E707AB02AA94469A461E701623A9
S21400462063440422180039009B4616F0CFFB7A78C4
S2140046303B7840F201085340BA7850245340FA7849
S214004640534052469371002307220393029270331D
S21400465078E7FF234A4613409FE740F2063030E7EC
S21400466002AB9E8924093519ED00EDB2159B6D004D
S214004670EDB21D70502DF0D8EFD1002E4AD1402358
S214004680159A51461370721E02AB92B29A81534627
S214004690C9789B784B40514609794B40514648793A
S2140046A089794340994252D159461498A21816F077
S2140046B08DFB4B46002B97D04FF6007348461842AA
S2140046C000D0FEE640F20033184380B2F9E602AAB4
S2140046D094460B3363441A000421686801F03EFCDC
S2140046E0002800D0EDE602AB9E89DA892409F300A3
S2140046F09B18E1005B18DBB20AB1083BDBB207226D
S214004700DD082D011340ED18159BEDB21D70502DE0
S214004710A3D8C6B1039FC7B301235146BB40A21C12
S214004720D2B2885C013B1840FF23BB4006990F7845
S2140047303B40034350468354E01CC0B25044721EB4
S214004740013116F043FB402D1CD9502D97D040F276
S2140047500530B6E63B78882B00D17EE7A87C04229D
S21400476008303900281816F031FBAB7C0A220433D7
S2140047700E216868AB74EC7400F040FE002800D18F
S2140047802EE79EE602AB9A898EE750460699A31C52
S2140047900A78DBB2C254CFE710B50F2484B06C445D
S2140047A0009301944023FFF769FE04B010BDC04695
S2140047B0F0B587B0002317006A46050013820E0086
S2140047C001222E214068059300F018FE040010B167
S2140047D0200007B0F0BD00220921686800F00EFE38
S2140047E004000028F4D100220A21686800F006FEC2
S2140047F004000028ECD191220D21686800F0FEFD2F
S21400480004000028E4D112236B441A0006216868CD
S21400481001F0A4FB04000028DAD14C2206216868C7
S21400482000F0ECFD04000028D2D1002201216868C7
S21400483000F0E4FD04000028CAD1002202216868C6
S21400484000F0DCFD04000028C2D1072203216868BE
S21400485000F0D4FD04000028BAD103AA04AB1670F9
S214004860019305AB002100936868012301F08AFDDF
S2140048706B460600040006215A8A686800F0BEFDF2
S214004880C0B9002EA4D16B461A8A022A0FD138006E
S214004890059916F09BFA2B7D012B14D03B78DB068E
S2140048A00AD10F227B7813400C2B00D190E740F200
S2140048B006348DE704008BE70F227B7813400C2B21
S2140048C000D085E7F3E70F227B789343002B00D1D7
S2140048D07EE7ECE710B50A002621FFF769FF10BD5A
S2140048E010B50A005221FFF763FF10BDF0B54E4623
S2140048F0DE4657464546E0B58DB007930023069141
S21400490006A9060003920B820A2A00D8DEE0737D11
S214004910012B00D0FCE00023169A0B931370189A14
S2140049201370337D012B00D1F5E040F20313B28AF9
S2140049309A4203D0039B002B00D18CE052210AAA96
S2140049403000FFF735FFFF2304000340032B00D1A0
S214004950C3E0002C68D140F2000B002304930593BB
S21400496006AB0E259C4640F2FF090BAF6544059B3F
S214004970012B00D1BAE09C1E63425C41049B039A63
S214004980A40004339334934200D1B6E0039A9342D2
S21400499000D2EBE0002340F2010A2B703A0021001F
S2140049A0300001950097FFF769FD337D012B5FD03E
S2140049B04B460340032B44D0002800D07FE05B46E4
S2140049C03BB93F2206AB1B7C9343002B46D1932C6E
S2140049D048D02B78402BE1D106AA94460F23634497
S2140049E00193179B3A000093210040233000FFF705
S2140049F045FD327D0300012A00D1D0E000285ED1BB
S214004A00179B1B785B0705D5059B0133DBB2059327
S214004A10032BACD13100B27C04000831079816F0A5
S214004A20D5F9B37C169A137020000DB0F0BCBB46C7
S214004A30B246A946A046F0BD032BBDD1337D012B5F
S214004A403DD05246189B1A702B78DA43520738D05E
S214004A5001332B70B3E726210AAA71E7402BB8D1A1
S214004A60952CB6D13B78882BB3D140F20634DBE7E1
S214004A704B460340012B00D08CE040F6B8320021B4
S214004A80706840F2020801F0C3FBC0B92B783A0008
S214004A902100300001950097FFF7F0FC4B460340DD
S214004AA0012BC9D14346012B09D040F6B83200216C
S214004AB0706840F2010801F0ABFB0028E6D0040065
S214004AC0B2E71B0901331B012B7078E740F29143D4
S214004AD0D340DB0700D51EE719E7337D012BA3D0B3
S214004AE00123189A40F2010B137036E7049B039AD1
S214004AF004339524934200D048E7049B06999C46CD
S214004B0004223800614416F061F940232B7063E7F5
S214004B1040F2213488E7522130000AAAFFF748FE07
S214004B20FF2304000340012B00D00FE740F6B83205
S214004B30002170680225FF2701F06AFB0028BED11D
S214004B40522130000AAAFFF733FE3B000340012B38
S214004B5056D1012DB3D040F6B83200217068012539
S214004B6001F056FB0028EBD004005DE788233B707D
S214004B70049B06999C4606AB614415209C4603227E
S214004B80604416F023F9049B0333DBB204934023FE
S214004B902B7021E7032B00D00EE7040044E74A46BB
S214004BA01340012B00D029E740F6B8320021706888
S214004BB040F2020801F02CFB002880D106AA944699
S214004BC00F2363440193179B3A0000932100402370
S214004BD03000FFF753FC4B460340012B00D00DE797
S214004BE04346012B00D16AE740F6B83200217068D0
S214004BF040F2010801F00CFB0028DFD0040013E7A8
S214004C000400A3E670B50400E37C0800150043B179
S214004C102100A27C083116F0D9F80020A37C2B7066
S214004C2070BD40F22530FBE720290CD170B16AB187
S214004C3040F601034260038000220023428303778C
S214004C4083770020704740F62000FBE72120F9E735
S214004C50F0B5CE46474680B587B089461600694609
S214004C60002298460023050040F6210403930B819A
S214004C704B81827642770F2E5AD848F28B03F34048
S214004C80DB0755D50A236B441A002121406801F042
S214004C9065F9040000284BD16B465B89032B02D0D4
S214004CA00A2B00D07FE0062304AF3B7000237B7006
S214004CB04B461B7840F6721CBB704B465B78721CEA
S214004CC0FB702B7FD2B23B7140F2B8435A4362442A
S214004CD00D2168687E7192B200F090FB040038BB2C
S214004CE066B301225321686800F088FB002830D1A3
S214004CF002AB019303AB3A000021009368680623D9
S214004D0001F040FB002206005321686800F076FBA5
S214004D10F8B9002E4AD16B461B89DA0623D14246E3
S214004D20039911600E9A13805B096B770123AB76AB
S214004D30200007B0C0BCB946B046F0BD02AB019338
S214004D4003AB00933A0006230021686801F01AFBC3
S214004D5008B10400ECE76B461B894FF6FD7219009C
S214004D601239114202D040F60604E1E7039E32787B
S214004D709342F8D171780129F5D1142B02D12B7FFB
S214004D80002BF0D02800B71C3900023A083016F085
S214004D901DF801224346AA761F6033780E99023B1F
S214004DA00B806A77C2E740F62504C1E73400BFE708
S214004DB0F0B50400407F884225D321B30020013996
S214004DC04901C9B2188008001C301618105C122859
S214004DD008D014282BD155186F7840F60600012FFE
S214004DE01ED0F0BD55186878012820D1687FC4060B
S214004DF00CD0C2071ED5420720D4020714D50322C2
S214004E0000201A80EDE740F62100EAE7059B023114
S214004E10511819603378069A023B00201370E0E7B9
S214004E20247F002CE2D1DCE70222024203D140F6C6
S214004E300600D6E70C2200201A80D2E706220020C1
S214004E401A80CEE7012310B510228376083015F0BD
S214004E50BDFF002010BDC046F0B54F464646D646BC
S214004E60C0B584B00E000CA90F88817E0400904661
S214004E709946002959D0BB1CFF2B00D972E0730459
S214004E8025D4002F49D06A46002313734B461B785F
S214004E9048F2000153730E9B606801930D9B03AAB2
S214004EA00093022301F06EFA0500B8BB0223E376F6
S214004EB044F200031E434B460E221B786A44924679
S214004EC01380122B1AD8894A9B00D3589F46C37E5C
S214004ED0012BD6D901222F21406800F08FFA050059
S214004EE0E0B90E236B441A00342160689A4601F03C
S214004EF035F8050090B9E27E130006E040F2010C9A
S214004F0002230222013FE144BFB2FB18FF2B00DD63
S214004F10D9E033B2002B28DA9FB90025280004B068
S214004F20E0BCBA46B146A846F0BD40F60605F5E731
S214004F30012F35D140F208090222A1440737330475
S214004F4013D50E9B4A4601930D9B31000093606873
S214004F503B0001F017FA05000028DFD1E37EDF19D9
S214004F60E776DBE740F62105D8E7D219E2762F216F
S214004F700022606800F042FA05000028CED13421F5
S214004F80E27E606800F03AFA05000028C6D1534673
S214004F901B88E076162B1DD8554A9B00D3589F4693
S214004FA022000E9B4CF2000101930D9B606800935B
S214004FB00832082301F0E6F905000028AED140F2D9
S214004FC0010CE27E013F0832D2B21300E144BFB2C8
S214004FD0E2769AE7E17D07234046CA081A40013286
S214004FE050430B400133C2184CF2E8238909C0F243
S214004FF001035B5C534340F22E125A434FF6FF7395
S2140050000F329A4262D940F2E833B2FBF3F20E2135
S214005010606892B200F0F2F90500002800D07DE743
S2140050200E9B4A4601930D9B44F200010093606874
S2140050303B0001F0A7F90500002800D06EE70E9BA4
S2140050401E88002E4BD00D9B1F683B78B34246D17E
S2140050500E9A731E0D999BB213807A1C0A60002B61
S21400506000D162E753461B8879785A1C914200D0DB
S2140050705BE70E99B21E92B20A800D99B81C0860C2
S214005080102B00D94AE71B499B00CB589F46217D31
S214005090A1E7A17D9FE7617D9DE7E17C9BE7A17C81
S2140050A099E7072A00D840E721000822083115F0C2
S2140050B07FFE002800D038E70E9B0A3E1E800D9B20
S2140050C00A371F602AE740F60C0527E70D216068BF
S2140050D092B200F093F905000028A1D01EE7002345
S2140050E00E9A40F60605138018E7C046FCC101007C
S2140050F048C20100A4C20100030069B140F62300C3
S214005100022905D12AB1911E40F62100022900D9B4
S214005110704700209A77FBE7D2B2012A02D80277BE
S2140051200020F5E740F62100F2E7C04641B101292C
S21400513003D1437F00201380704740F62300FBE72F
S214005140037F00201380F7E7F8B540F2F01704005D
S21400515006A840C809AD00882D88B94200D09DE059
S214005160002800D196E0002D00D193E0002C00D15D
S214005170DCE0002A00D1D9E0002E00D1D6E0089964
S214005180002900D1D2E00231A1616260A360002252
S214005190002140230138208202200136023DE660CD
S2140051A0A58362822175E2521433E0541D3BA2654A
S2140051B0FE30E1540733A263A087E154D233FF33B5
S2140051C0C0F20113236040F2D213E28322626262CD
S2140051D06264A264E25248F2C143C0F2000323654F
S2140051E005236385E36240F2E833C0F2E8332363C5
S2140051F009258C232600A286E5544433FF33E15468
S2140052000133E1540433E2500833E2500433E250F1
S214005210083BE2500D33E1540333E2500433E052CE
S21400522003320233E254333BFF3B8D360021E65017
S2140052301332300015F0D3FD02F018FA200001F00A
S214005240F7FF050000282CD0FF232B4224D14CF278
S21400525078738022C0F201032600A3508423002224
S2140052607C3631003000E250FEF7BCFE050098B9EF
S2140052700023812200213000FEF78AFF40F66C03EF
S214005280E26FC2F200031A6048F28143C0F20003E4
S214005290E36401E040F221252800F8BD40F2202515
S2140052A0FAE70322012140F2052006F011FF04224E
S2140052B03100200001F0E6FA05000028C4D18E2354
S2140052C0E75C0133E15C23008F335A78200012023A
S2140052D00A4352BA0132310092B201F0D3FA050005
S2140052E00028B1D18E23E25A23008E335B881B043C
S2140052F013439222A15A22009232528812040A4381
S21400530040F2D4116250802F01D1012B9FD040F281
S2140053100B259B07C0D59623E15A230040F2D812EE
S21400532096335B881B040B43A350B5E72125B3E7F0
S214005330002340F2D211002210B50224038043520B
S214005340D239FF39C1701D49436081873F31FF3133
S2140053508360C36003618365836342549231FF3187
S2140053604254013142540431435008314350043111
S2140053704350DC39FF394185C1624F318361C361D7
S21400538003624362036383868364C3640365445491
S2140053909231FF31425403314350FE3404314452BB
S2140053A002314254BC22835040F66C027C30C2F27A
S2140053B000021360FEF702FF002010BD00FFFFFF93
S2140053C010B50023202200217C30FEF7C9FE10BD58
S2140053D010B5C1784B4259413B23C35CC9B2012B7F
S2140053E001D10133194302F053F8FF230340102B79
S2140053F000D010BD40F20A20FBE7C046F0B5C64616
S214005400002600B588B005000C0017000021082211
S21400541006A80396059615F0E2FC0A223D236A4488
S21400542004961680EE5CFF2E1AD05E2C03D8B74981
S214005430A300CB589F4647F6F07C6444A4B240F2E3
S2140054402320552C05D8B24BA4001B599F4640F28A
S214005450232008B080BCB846F0BD40F22320F8E711
S21400546040F22520F5E740F25C0843466600AE1998
S214005470F35ABB4200D1F1E13A002100280002F0C5
S2140054808FF90028E5D14346F752E2E75423EB5C58
S214005490012B00D01AE326002C367300EB189B88ED
S2140054A0BB4206D03A002100280002F079F9002815
S2140054B0CFD17600AD190020AF80CAE7052F00D9FE
S2140054C0BFE340F2EE130020EF54C2E77B1E012B31
S2140054D000D963E340F2ED130020EF54B9E7FF2351
S2140054E01822390028001B0602F082FAB1E740F6BF
S2140054F0FE727B1E9BB2934200D9A6E340F2E813ED
S2140055000020EF50A5E74FF6006340F221201F422F
S2140055109FD1FE22FF2310003B4038403A4200D085
S214005520CAE240236864EF5293E7012F00D932E3C2
S21400553040F2D0130020EF548BE73A23002F00D020
S214005540C0E20020EF5484E708223900280002F069
S21400555029FA7EE7012F00D190E3002F00D00EE35A
S214005560012128006B4A01F00DFC72E7012F00D9DB
S2140055701AE340F2CF130020EF546AE74FF60073A9
S21400558008223900280002F033FA62E74022390088
S214005590280002F007FA5CE720223900280002F013
S2140055A001FA56E7012F00D9E3E240F2EC1300209F
S2140055B0EF544EE7012F00D14FE3002F00D0F0E26A
S2140055C001212800544A01F0DDFB42E7022239009F
S2140055D0280002F0E7F93CE7012F04D15423EB5CE6
S2140055E0042B00D061E301223900280002F0DAF92A
S2140055F02FE7FF231022390028001B0402F0F8F9D9
S21400560027E710223900280002F0CCF921E704220F
S2140056103900280002F0C6F91BE77823EB5ABB4294
S21400562004D13E23EB5C012B00D142E3012239007A
S214005630280002F0FDFC002800D00AE778230122AB
S214005640EF523A3BEA5404E7012F00D99AE200D120
S214005650DFE210220F21280001F048FBF9E6012FB7
S21400566000D992E240F2E5130020EF54F1E655230C
S214005670EF54012F00D14CE20222032128005242AF
S21400568001F080FBE5E654230020EF54E1E66A23B0
S214005690EB5ABB4200D1E1E0002F00D160E23800B7
S2140056A013F086F914F022FB48F21F5241F6B86355
S2140056B0C5F2EB12C4F22B0313F0D8FC4CF2000335
S2140056C00022C4F25F0313F0B5F914F053FB12F096
S2140056D087FA02027F2011210243280001F0BAFA5D
S2140056E0002800D0B5E66A230020EF52B1E6012F6D
S2140056F000D1BAE2002F00D05CE23C230922082148
S2140057002800EF54524201F03DFBA2E6ECC2010035
S21400571068C40100FFF7FFFFFFFEFFFF40F28A2389
S2140057209F4200D985E27801C01B8000C019C000E6
S2140057306F62002800D1D7E113F03AF914F0D6FAD8
S21400574048F21F5241F6B863C5F2EB12C4F22B03BF
S21400575013F08CFC4CF200030022C4F25F0313F03B
S21400576069F914F007FB12F03BFA02027F201121C0
S2140057700243280001F06EFA6BE640F203133B4248
S21400578000D15AE202221100002339403A4201D0E9
S214005790043303930222F80502D413430022039332
S2140057A0062E00D109E2DB4305A98B70FF231220E9
S2140057B00324CB700B714B71FD3B087088710A7225
S2140057C028000C224C70CB7101F028FB41E6022326
S2140057D0320040F225209A43042A00D039E6052FED
S2140057E000D153E200D947E10238002F00D030E65E
S2140057F00F2305A90B700C3B4B70E9338B701333EA
S214005800CB700B714B7100230F228A710D3ACA714F
S21400581028000B720A3201F001FB1AE64823012F1A
S21400582000D167E100220821EA542800053A01F079
S214005830A9FA002800D00CE680223F212800D205D5
S21400584001F054FA05E63900280002F0A7FB00E64E
S21400585027B149242B5D012B00D102E10020F8E599
S21400586066242B5BBB42F9D0072F00D9D9E103236E
S214005870382225212800009702F0E0FD002800D0FD
S214005880E7E52F53E5E5012F00D975E10020EF701D
S214005890DFE56223EA5ABA42E0D0072F00D914E2C5
S2140058A00020EF52D5E5280002AB04A901F0ACFEBB
S2140058B0002800D0CDE52B8ABB4200D211E13B2365
S2140058C0EB5C012B05D040F2E513EB5C012B00D11D
S2140058D0C3E06F82BDE5002F00D1A6E100206F85F2
S2140058E0B7E5012F00D953E100D183E11122012150
S2140058F02800524201F046FAABE50020AF85A8E545
S214005900002FABD0342301222800EA5400210023C4
S21400591001327C30FEF73CFC48F2C14244F24020A3
S2140059203900C0F20002C0F20F0006F01DFB90E541
S214005930280002AB04A901F067FE002800D088E525
S21400594040F2D2132A8AEB5A9A4200D8C9E0049A47
S214005950D7547EE53A000A21280002F0F9FA00281A
S21400596000D076E56E23EB5CFF22002B00D175E7B6
S2140059707023EB5A1A4200D070E706212800B93A85
S21400598001F00EFF65E53A000921280002F05EFAF4
S2140059905FE5280002AB04A901F04AFE002800D00B
S2140059A057E5AB8BBB4200D89BE06F8451E5012FD7
S2140059B000D9FCE000D112E1092200212800524261
S2140059C001F0E0F9002800D043E54A23E85440E51A
S2140059D040F2D2117B1D6B523B23EB5C012B00D1B6
S2140059E03CE740F2E513EB5C012B00D036E70637C8
S2140059F000206F522DE57623EB5ABB4207D13E239B
S214005A00EB5C23B95433EB5C012B00D126E7002274
S214005A103900280002F00CFB002800D019E5762398
S214005A20EF52383BE85414E57A23EB5ABB4200D1D8
S214005A3014E7042E00D1C9E0062E00D041E1702301
S214005A40EA5C023BE95C28003B0001F0EFFF00281F
S214005A5000D0FEE47A23EF52FBE40137BFB26F8238
S214005A60F7E4032200212800524201F08BF90028B7
S214005A7000D0EEE42855ECE4BB1F012B00D9ABE0C8
S214005A80062E00D029E10F2305A90B700C3B4B70A6
S214005A90F9338B70053F0333CB700B714B71BFB27C
S214005AA04CF26C73BF00C0F20103FA5810231001C9
S214005AB003401343DBB2A7E6022B00D0C9E040F256
S214005AC02320C6E401220020EA54C2E43A00210062
S214005AD0280001F065FE002800D0BAE42C34260029
S214005AE0E7E440F20420B4E47F221121280001F00C
S214005AF0B1F8AEE4042208212800EF5401F0F6F8CD
S214005B00002800D0A5E43F212800784A01F03AF9A1
S214005B109FE40321280003AA01F0C8F9002800D05A
S214005B2097E440F60042039B1A405423EB5C032B99
S214005B3000D1CEE040F207131A4303212800039257
S214005B4001F088F8002800D083E43D23EB5C012BAD
S214005B5000D083E602222121280001F0C7F878E46D
S214005B607F221121280001F075F8002800D1BAE53F
S214005B706FE440F221206CE440F2212069E440F218
S214005B80212066E440F2212063E440F2212060E414
S214005B9040F221205DE440F221205AE440F2212028
S214005BA057E440F2212054E440F2212051E440F230
S214005BB021204EE440F221204BE4002900D1F2E5FA
S214005BC038210B43203903930A43ECE5002F00D11C
S214005BD035E740F223203CE440F2232039E4082253
S214005BE00021280001F082F8002800D031E44A2382
S214005BF0EF542EE410220121280001F02BF8002893
S214005C0001D0FFF726FC40F2E8131022EA50FFF717
S214005C1020FC11220F212800524201F0B3F8FFF7B2
S214005C2018FC40F22120FFF714FC40F22120FFF779
S214005C3010FC40F22120FFF70CFC40F22120FFF779
S214005C4008FC40F22120FFF704FC40F22120FFF779
S214005C5000FC40F22120FFF7FCFB40F2001201217D
S214005C60280001F043F8FFF7F4FB3C230822082144
S214005C702800EF5401F03AF8FFF7EBFB40F600027D
S214005C800121280000F0E6FFFFF7E3FB042E28D1F1
S214005C900F2305A90B700C3B4B70F9338B70033345
S214005CA00027CB700B714B71FAE640F22520FFF708
S214005CB0D0FB5333EB5C012B00D0B7E40020FFF79A
S214005CC0C8FB40F22520FFF7C4FB40F22120FFF777
S214005CD0C0FB40F203131A432FE740F22120FFF7E0
S214005CE0B8FB40F22120FFF7B4FBC046FFFFFFBF22
S214005CF010B500225E210400FFF780FB10B92000DB
S214005D0001F006FC10BDC046F0B54F46D6464646E6
S214005D100C00C0B53D230700A1B9C35C00213B229F
S214005D20B9540022F9853C317A54AA31FF317A54AD
S214005D309B39FF397A540A2B00D9D5E07F4A9B005D
S214005D40D3589F46C1543E22002383543832835290
S214005D500232835201240B00E0E789220921380031
S214005D6001F000FB00283DD14CF2FC7540F208081B
S214005D70C0F201058CB33800202200215C3015F0FB
S214005D802EF8002640F23D0940F2540A0235AB1EBA
S214005D901C88631E012B00D8A9E0062C00D1B1E0B8
S214005DA0072C10D14B46FB5C013B012B04D8534615
S214005DB0FB5C012B00D1B7E0072138002A88FFF7EB
S214005DC01DFB78B907242C342B88640001363C1957
S214005DD0B6B2A38004354645D9D101222E2138001B
S214005DE0FFF70CFBE0BCBA46B146A846F0BD8022E1
S214005DF00021380001F0B6FA0028F3D14CF61C0555
S214005E0040F20808C0F20105B4E7842204213800F5
S214005E1001F0A8FA0028E5D14CF63C0540F2080847
S214005E20C0F20105A6E791221021380001F09AFA87
S214005E300028D7D14CF6800540F20908C0F20105CB
S214005E4098E799221E21380001F08CFA0028C9D163
S214005E5001233B224CF2BC75BB54AB32FF3240F2FE
S214005E600808BB54C0F2010584E79A221F213800B7
S214005E7001F078FA0028B5D13B2301224CF27C755C
S214005E8040F20808FA54C0F2010573E79B2220216D
S214005E90380001F067FA0028A4D13B2301224CF217
S214005EA09C7540F20808FA54C0F2010562E78822A1
S214005EB00821380001F056FA002893D14CF2DC7520
S214005EC040F20808C0F2010554E78B220A21380088
S214005ED001F048FA002800D084E74CF65C0540F252
S214005EE00908C0F2010545E740F221207AE74B4653
S214005EF0FB5C2A88022B0FD023002C335B00FB1898
S214005F009A8060E7062138002A88FFF777FA00288B
S214005F1000D067E7062456E721003800FFF76EFA40
S214005F20002800D14FE75DE740F2F4120721380061
S214005F30FFF764FA002800D144E753E7C0C5010024
S214005F4070B500220D005E210400FFF757FA18B95D
S214005F5029002000FFF7D8FE70BDC04630B505000A
S214005F60140083B0002A2CD05F2903D8944A8B00F3
S214005F70D3589F4648F21203994200D1F4E00CD958
S214005F8048F21303994223D03D33994216D13A235F
S214005F90C35C0020138003B030BD023B994212D090
S214005FA0013399420AD14FF6FF72436C934200D9EF
S214005FB0D7E02380002300206B64ECE740F2232028
S214005FC0E9E72120E7E74023C35A00201380E2E7F1
S214005FD040F2EE13C35C00201380DCE72C3149004E
S214005FE041188B8800202380D5E740F2D213C35A8D
S214005FF000202380CFE74823C35C00202380CAE725
S2140060004923C35C012B1AD0012300202380C2E75A
S2140060103D23C35C00202380BDE73C23C35C0020F7
S2140060202380B8E7838D00202380B4E7072101AAE8
S21400603000F03CFF0028AED1019B9B01E4D4002376
S21400604000202380A7E76B466A46023301A901F0C9
S214006050DBFA00289FD140F2D2132A8AEB5A9A42E2
S21400606000D8AAE0019AD35C238094E76B466A4680
S214006070023301A901F0C8FA002800D08BE73B23C1
S214006080EB5C012B05D040F2E513EB5C012B00D155
S2140060908AE06B461B8823807DE73E23C35C012B8A
S2140060A078D0762340F2E832C35A0020B3FBF2F3EE
S2140060B0238070E73E23C35C002B61D17633C35A3E
S2140060C00020238067E7C38D0020238063E75523E5
S2140060D0C35C002023805EE75423C35C002023803B
S2140060E059E7072101AA00F0E1FE002800D052E798
S2140060F0019B5B0188D4A2E740F2E513C35C002055
S214006100238048E76B466A46023301A901F07CFA11
S214006110002800D03FE76B465B8823803BE76B4652
S2140061206A46023301A901F083FA0028F3D032E769
S214006130438C002023802EE73B23C35C0020238073
S21400614029E7438D0020238025E7002101AA00F0DF
S214006150ADFE002800D01EE7019B1B0700D553E7C5
S2140061606DE740F2222016E74FF61842436CC0F265
S214006170E732934213D840F2E832B3FBF2F318E763
S2140061807823C25A412AECD840F2E8335343002021
S214006190238000E77733C35A00202380FBE60023E2
S2140061A0436440F22220F6E66B461B88002B00D1A3
S2140061B05AE7013B9BB22380EDE640F20420EAE674
S2140061C0ECC5010070B5050014001E0086B0E1B1F4
S2140061D0DAB10A9BCBB10222684614F0F7FD6B4693
S2140061E003222100981C14F0F1FD6B4612220A9936
S2140061F05E71981D14F0EAFD18236A4640F2B3213A
S214006200280000F0A9FE06B070BD2120FBE7C046BE
S214006210F0B54746CE4680B50E000700140083B0A2
S214006220012938D832B90025280003B0C0BCB946C9
S214006230B046F0BD4022012100F00CFD050000280C
S214006240F2D1012E2AD040F24C525443642200234D
S214006250B4FBF2F40194FF24009340F200124023B2
S2140062603D21380001F026FA260005000640122ED1
S214006270DAD0412201213800524200F083FD78BB7B
S214006280002DD0D02B00A3439BB2002BCCD140F2E4
S21400629000253543C8E740F22125C5E74FF6E876E6
S2140062A044F6485840F23C09C0F20F0612E00D4B87
S2140062B040F200129C464B463D2100933800402396
S2140062C00196644401F0F6F9FF230500A4B20340EA
S2140062D0122BA9D04445EAD835223C235443B9E7CB
S2140062E00500A1E7B8B2FFFF70B500225E210400EA
S2140062F0FFF784F800B170BD200001F009F900280E
S214006300F9D101212000628DFFF782FF0028F2D12B
S2140063103B23E35C012B2CD13C33E55CFF2D02D103
S2140063200722F83DE25400225E212000FFF766F8BF
S2140063300028E0D129002000FFF7E6FC0028DAD18B
S214006340E1784B4259413B23E35CC9B2012B01D1B2
S21400635001331943200001F09BF8FF230340102B64
S2140063600CD00028C7D101212000A28DFFF750FFD6
S214006370C1E7E1784B425941C9B2EBE740F20A2047
S214006380B9E7C046F0B54746CE4680B589B00D00A1
S21400639090461E00F02100236A4604000693D1753D
S2140063A0079316B14346002B6BD0E38D002B00D02D
S2140063B06FE0AB0465D1109B002B00D180E0119BF1
S2140063C0002B00D19DE00023119A13803423E25C59
S2140063D0012A00D17EE020000023012200217C302B
S2140063E0FDF7D6FE3C23E35C002B55D16223E35C2D
S2140063F099463B23E35C012B05D040F2E513E35CB2
S214006400012B00D18BE0119B01960393109B4A460B
S21400641002934346290000932000072300F092FED3
S214006420FF2607000640122E2DD0012E00D190E048
S214006430002800D0D0E02DB2002D24DB6223E35AE2
S214006440002B00D0A3E02000119A109901F02AFE3C
S214006450FF2607000640122E15D0012E00D17FE041
S2140064604025635D012B00D1C5E03C23E35C012B96
S21400647000D17BE0112E01D01A2E04D140F2012764
S21400648001E040F22127380009B0C0BCB946B0464A
S214006490F0BD40F22527F6E73F212000624A00F0D3
S2140064A071FC07000028EED140F200223F212000B8
S2140064B000F01CFC07000028E5D140F2070998E729
S2140064C02BB240F22127002BDDDA119B002B00D1E6
S2140064D07CE778E7002240F66C00E25406AB0093B7
S2140064E005212223013AC2F20000FDF7CDFD069BEE
S2140064F09B060DD505F096FD07000028C3D1123780
S214006500C1E72BB240F22127002B00DA5EE7BAE79C
S21400651005F088FD0700002800D15CE7B3E748F2E5
S2140065200002954244D0002D00D06CE7019317235B
S2140065306B4400930022072348F2000120000395D5
S214006540029500F0FFFD070000289CD144F20005EC
S21400655059E73A23E35C23BB6223E35A002B40D17E
S2140065603C23E35C012B00D08DE701263F21200071
S2140065702E4A00F007FC40B944F200023F212000FA
S21400658000F0B4FB002800D174E707007BE7002288
S21400659003212000FEF732FF0700002800D072E734
S2140065A051E72000FFF7A0FE0028D5D007006AE7D5
S2140065B00193172300226B44009348F2000107233F
S2140065C020000392029200F0BDFD0700002800D0D4
S2140065D059E74CF2000516E76223E35A002B00D178
S2140065E03EE7002203212000FEF708FF002800D126
S2140065F033E7070047E7200007A901F07FFE0028E1
S214006600C3D1635BDB0502D5079B63642DE7636C30
S214006610079AD943914203D201235B42636424E77D
S2140066209B18636421E7C046FFBFFFFFFFFDFFFF27
S214006630F0B5C64600B586B00F000A2519000CABAB
S21400664016001A880023040080686D442B8010B35F
S21400665003AB0093984601950C2304F013F8FF2330
S2140066600340212B14D078B92B88062B10D10A2E84
S21400667014D00B2E0CD1122169440D9B32000093CE
S21400668020003B0000F0FAFD06B080BCB846F0BD26
S21400669040F22120F8E740F22520F5E74146ECE7F6
S2140066A010B50C0082B01900049B0093230000F084
S2140066B0E5FD02B010BDC046F0B540F2E815002377
S2140066C00E00415985B004000393002952D040F2D1
S2140066D0DC17C351102924D140F2D012805C012867
S2140066E067D000250C3F02E00135AE4235D90120C7
S2140066F0FDF77CFDE35D012BF6D140F2DC11E833BB
S214006700FF33E258D93BFF3B63500021E15513426B
S21400671051D140F2E813002240F2AE20E25005B01C
S214006720F0BD03AB32000093012301F00BFF039989
S21400673065590200E151102D35D0FF263300034085
S214006740012B4CD0122B18D00D4220D140F2E8136A
S214006750002240F2AE20E250E1E740F2E813E258B1
S214006760102A2ED000220120E25040F200231843C7
S21400677080B2D4E740F22520D1E74FF600731A40E6
S21400678040F2E8130021E150002AC8D1EDE740F2BC
S214006790E8130021E150002AC1D04FF600731A40DA
S2140067A0002ABCD1E1E7FF230340012BCAD1050034
S2140067B008E0E151A35440F2E81300220020E25022
S2140067C0ADE70125112201212000524200F0DAFA3D
S2140067D00028A4D14FF6007228002A40D0E7B24322
S2140067E092B2CDE710B50023212200217C30FDF7C0
S2140067F0CFFC10BDF0B5CE46474680B587B088467C
S21400680091466946002204004A82012B15D10600F3
S214006810FF277C3605AD0AE0202301220521300043
S2140068200095FDF731FC18B33840012805D140F239
S214006830052005F0BBFC0028EED10021606801F0C1
S2140068404DFE12236B440293002300210193009314
S21400685042464B46606805F0E3FC0121050060688F
S21400686001F03CFE280007B0C0BCB946B046F0BDFB
S2140068708125059B1D406B1E9D4168426D25054088
S2140068801235EFE7F0B5162704000E0015000023BA
S21400689087B06F44002140683B8001F01FFE002354
S2140068A000220021019660680297009505F0B8FC6A
S2140068B001210600606801F011FE3B88AB4200D063
S2140068C07F26300007B0F0BDF0B557464E46454629
S2140068D0DE46C023E0B5C758838BFC78BA7824021E
S2140068E0144364BAA4B205000E0083B0A34252D388
S2140068F03B799A46012C46D9002961D08C23C05C8E
S214006900231A04331BB2DA439846D2171A4093B2BE
S214006910019343460100002B40DD05398BB29946B2
S2140069203378102219009143092912D0162B4AD821
S21400693049F28002C0F24002DA40D30746D57369B6
S2140069401B689B464B46002B33D14346002B14DD79
S21400695004E073691B689B464B4653BB5F46019A2F
S214006960013F3B7801323900280092B29846FFF783
S21400697089FF002830D143463B7073691F681F604B
S214006980B369013C1C80504603B0F0BCBB46B2461F
S214006990A946A046F0BD40F2040AF4E7631E9BB287
S2140069A099463378092B01D0192BBFD173691B6820
S2140069B09B4658464A46791D14F008FACB44C4E76D
S2140069C040F27F0ADFE7263B012BB8D94346002B6F
S2140069D004DC73690537D2E78246D4E7019A7B1E4A
S2140069E01918984601321B5C92B228009946FFF7A8
S2140069F049FF0028F0D18C2342464946EB5CD1542F
S214006A00E7E7C046F0B54746CE4680B50B8A0D8907
S214006A1087B00027ED1890466B460E22DF811F8256
S214006A206A4404AB0E0005A90400059700F0ECFDCF
S214006A306B4604351A8ADB89ADB25D19238CED18D6
S214006A40AA4207DA04206782278407B0C0BCB9468A
S214006A50B046F0BD3378022219009143082926D0AB
S214006A6040F2CE120121A15402AA17800A226A44DB
S214006A701780C922A35471680497002900D19AE0B0
S214006A80358A002D00D0D8E0032303272000C93024
S214006A903289C01814F09AF9CA2133895D19AAB24E
S214006AA0100A6054DB19013162549BB24CE000229C
S214006AB040F2CE13E25443461AB2002A73DB0A238E
S214006AC0032502AA6B4417801F800497200004A9A0
S214006AD000F09AFD7368049F994633893278984689
S214006AE0238C002B00D084E0013323843A70328A52
S214006AF0002A00D098E073686BB1638A208C424607
S214006B00C018237D4946C0180230381814F05EF9C4
S214006B10638A434463820020022D00D195E7628A8F
S214006B20237D9B18228C9BB26382511C1B0A2184F6
S214006B30BB54238C628A591C2184FA54638A228CA3
S214006B4020759B186382002300226946CA71CF32E3
S214006B50FF32A55C95B37F21073AFF3AA154210086
S214006B6001339AB220000123C831FFF743FE002804
S214006B7000D06AE7200005A901F046FDFF23034088
S214006B80122B39D0012B37D0002800D05DE720002B
S214006B900023012200217C30FDF7FAFA31002000A4
S214006BA0FFF792FE51E70A2302AA6B4402251780DC
S214006BB01F8004978AE7032700256DE70E238D8143
S214006BC0CD816B4403AA05A92000059500F01CFDA5
S214006BD07F22059B2000013B05931A706B469A891D
S214006BE005990132012392B2FFF704FE65822584DF
S214006BF0BDE7E3681A707AE7E38D13B14B230122F1
S214006C00E2546B462000D91D01F072FC002800D02B
S214006C101BE76B4631002000DA7901F045FE0028BC
S214006C2000D012E7123010E7208CF16802303818D6
S214006C3014F0CCF8338A23755DE720002A00F1684B
S214006C40CC3014F0C3F8358A7168EF1CBFB23B0035
S214006C501CE7C04670B58CB004000E00150000217D
S214006C601C2205A814F0BBF800236A460293D380C2
S214006C70A4B32388FF21180040F2002288439042E4
S214006C802CD1DBB20F2B29D1632E04D93300803BE5
S214006C90DBB20F2B26D86A46012353752B0A937353
S214006CA02B0CD37303AB0693052393836B46557364
S214006CB006332D0E167315740B93002202AB2000BC
S214006CC005A90A93FFF79EFE50B14FF600731842CF
S214006CD006D140F20023184380B201E040F22020A3
S214006CE00CB070BD40F22120FAE7C04670B58CB0FB
S214006CF004000E00150000211C2205A814F06FF8F1
S214006D0000236A460293D380ACB32388FF21180081
S214006D1040F20022884390422DD1DBB20F2B2AD1BD
S214006D20632E04D93300803BDBB20F2B27D86A468C
S214006D3040F2011393822B0A93732B0CD37303AB8D
S214006D400693052393836B46557306332D0E1673F1
S214006D5015740B93002202AB200005A90A93FFF7D7
S214006D6051FE50B14FF60073184206D140F2002390
S214006D70184380B201E040F220200CB070BD40F213
S214006D802120FAE770B58CB004000E001500002133
S214006D901C2205A814F023F800236A460293D38029
S214006DA0ACB32388FF21180040F2002288439042AB
S214006DB02DD1DBB20F2B2AD1632E04D93300803BB2
S214006DC0DBB20F2B27D86A4640F2021393822B0AB7
S214006DD093732B0CD37303AB0693052393836B46F5
S214006DE0557306332D0E167315740B93002202ABE3
S214006DF0200005A90A93FFF705FE50B14FF6007371
S214006E00184206D140F20023184380B201E040F257
S214006E1020200CB070BD40F22120FAE7F0B58BB010
S214006E2004000E00150000211C2203A813F0D7FF53
S214006E3000236A460293D38084B32388FF27190071
S214006E4040F20022B943914228D1DBB20F2B25D164
S214006E5046B3AB1FFC2B25D80623B5FBF3F2530035
S214006E609B185B00EB1A9BB2E3B96A4603331373B5
S214006E706B46063395820993002202AB200003A9D5
S214006E8004960893FFF7BEFD50B10300BB439BB2C8
S214006E9033B940F20023184380B201E040F22020CC
S214006EA00BB0F0BD40F22120FAE7C04670B58AB0BC
S214006EB004000E00150000211C2203A813F08FFF0B
S214006EC000236A460293D3804CB32388FF21180020
S214006ED040F200228843904221D1DBB20F2B1ED114
S214006EE0632E20D825B36A460423137301AB04939C
S214006EF0012393826B46063316710993002202AB78
S214006F00200003A90893FFF77DFDA0B14FF600739C
S214006F10184206D140F20023184380B201E040F246
S214006F2020200AB070BD3300803BDBB20F2BD9D9CE
S214006F3040F22120F5E7029C21782960627812024F
S214006F4011432960A3781B040B432B60E2781206DA
S214006F5013432B60E5E7C046F0B5C64600B58AB0D9
S214006F6004000D00170000211C2203A8984613F009
S214006F7036FF00216B460291D980ACB32188FF26EC
S214006F800A0040F20023B2439A422DD1C9B20F291B
S214006F902AD1434641F20042EB1893422ADC43468C
S214006FA043B306236A4613736B4642460633DA81BA
S214006FB0099302AB08936B461D712D0A6A465D71F4
S214006FC002232000938303A901AB002204970693B3
S214006FD0FFF718FD50B10300B3439BB233B940F23C
S214006FE00023184380B201E040F220200AB080BCA3
S214006FF0B846F0BD40F22120F8E7C046F0B58DB0A7
S214007000019204001C220F0005A800211E0013F0A8
S214007010E6FE00226B46DA8194B32288FF25110033
S21400702040F20023A94399422AD1D2B20F2A27D18F
S21400703041F20042BB19934226DC019B23B36A4609
S2140070400723137504AB06930423938301AB0A93BB
S2140070500E23177496743F0A360A5774D6746B4418
S2140070600022200005A90B93FFF7CCFC50B10300CB
S214007070AB439BB233B940F20023184380B201E021
S21400708040F220200DB0F0BD40F22120FAE7C046C5
S214007090F0B5D64646464F46C0B58AB005000E0047
S2140070A0924600211C2203A813F099FE00246B468A
S2140070B001AA5C800294063314801C8075B340F2EB
S2140070C0FF0828884746010040F20029B943494591
S2140070D024D1C0B20F2821D1002E2FD0514669B33B
S2140070E002A92800894600F0A3FA6A46092393817C
S2140070F06B46023309934B4694822800002203A96C
S21400710004940893FFF77EFC80B10300BB439BB258
S21400711033B940F20023184380B201E040F2202049
S2140071200AB0E0BCBA46B146A846F0BD5246089B37
S2140071301B683360099B1B881380F1E740F221200F
S214007140EEE7C046F0B5CE46474680B58BB00400A5
S21400715012A81F0008C80D009846038816000021D4
S2140071601C2203A8994613F03AFE00236A460293AF
S214007170D380002C45D02188FF22080040F200234F
S214007180904398423DD1C9B20F293AD14346002BCD
S21400719047D040F20043994546D8072E44D80A23E4
S2140071A06A46137343464A4604936B469A8244F2F1
S2140071B000031A002A402B4203D100236282228455
S2140071C023756B461E715F7101AB6A4606930223F8
S2140071D093836B46063309932A0002AB200003A96B
S2140071E00893FFF70FFC98B9149B1BB1089B149AE1
S2140071F01B681360159B33B1099B159A1B88138077
S21400720001E040F220200BB0C0BCB946B046F0BD4D
S2140072104FF600731842F6D140F20023184380B2AE
S214007220F1E74B46002BB8D040F22120EBE7C046F2
S214007230002310B582B004000193E0B10388FF215B
S214007240180040F200228843904214D1DBB240F28C
S21400725020200F2B01D002B010BD6A467033137188
S2140072605F3B53711F3B937120000023042201A94A
S214007270FFF7C0FAEFE740F22020ECE7F0B547460C
S214007280CE46040080B58FB00D00170000211C22EA
S21400729007A8984613F0A3FD002C46D02088FF26AA
S2140072A0020040F20023B2439A423ED1C0B20F28F9
S2140072B03BD1002D40D0169B002B3DD00A235B42CD
S2140072C09946B9444B46DBB240F22120012B2ED81A
S2140072D00B236A4603AF137729000622380013F003
S2140072E075FD4A46531E9A41434660321699BA7156
S2140072F0FB71042205A813F069FD0C236A469384EB
S21400730001AB0C936B4600220233200007A90897B6
S2140073100D93FFF777FB90B10300B3439BB233B9ED
S21400732040F20023184380B201E040F220200FB064
S214007330C0BCB946B046F0BD40F22120F7E70021B8
S214007340200002AAFFF7B2FD0028F0D1029B9B079F
S21400735004D44923E05440F20720E8E749230122F9
S214007360E254E4E7F0B58BB004000F0016000021ED
S2140073701C2203A813F033FD00256B460295DD8022
S214007380ECB1238840F200221900FF35A943914250
S21400739015D1DBB20F2B12D13B00213BDBB2DD2B2C
S2140073A011D933006233DBB2602B0CD973B2002BD9
S2140073B009DA33003B40FF2B08D1002001E040F201
S2140073C020200BB0F0BD40F22120FAE76B460633D2
S2140073D0099302AB6A46089340F20D13938101AB02
S2140073E0049302231771567193822000002203A98A
S2140073F0FFF708FB0028E0D00300AB439BB2002B4E
S214007400DFD140F20023184380B2DAE770B58AB0C5
S2140074101D006B4604000092D9711C22002103A8AF
S21400742013F0DDFC6CB32288FF26110040F2002327
S214007430B143994225D1D2B20F2A22D16B46DB79CD
S214007440190021395E2920D99D2B1ED82B88B82BF0
S2140074501BD96B461A7307336A46049301230892B6
S21400746093822000002203A90995FFF7CBFA50B1BA
S2140074700300B3439BB233B940F20023184380B2F3
S21400748001E040F220200AB070BD40F22120FAE769
S21400749070B58AB000256B4604000E001C22002141
S2140074A003A89D8013F09BFC6B460295DD8044B3D9
S2140074B0238840F200221900FF35A943914220D1CB
S2140074C0DBB20F2B1DD1032E1FD86B460633099354
S2140074D002AB6A4608931023137301AB049301238F
S2140074E0167193822000002203A9FFF78BFA50B191
S2140074F00300AB439BB233B940F20023184380B27B
S21400750001E040F220200AB070BD40F22120FAE7E8
S21400751030B58BB01C220400002103A813F05FFCDA
S21400752000236A460293D3803CB32388FF251900C4
S21400753040F20022A94391421FD1DBB240F2202044
S2140075400F2B01D00BB030BD6A46023313736B4667
S21400755006330993002202AB200003A90893FFF725
S21400756051FA0028EED00300AB439BB2002BE9D1C2
S21400757040F20023184380B2E4E740F22020E1E71F
S21400758070B58AB01C2204000D0003A8002113F079
S21400759026FC00236A460193538001AB029314B382
S2140075A02388FF26190040F20022B14391421AD1E7
S2140075B0DBB20F2B17D125B36A461833137302AB11
S2140075C008936B4600220233200003A90993FFF7B5
S2140075D019FA60B10300B3439BB233B940F20023FB
S2140075E0184380B201E040F220200AB070BD6B461E
S2140075F01B792B706B465B796B706B46DB886B80F8
S214007600F3E740F22120F0E730B58469C568013C15
S214007610A54206D00D60018A1980438A0020138097
S21400762030BD448C2D190D60018A091B1980F4E7C2
S214007630F0B53B24045D012C14D040F2E514045D43
S214007640013C65426C41E5B28769468CBC46751BB9
S21400765065440D60818B891B0C1B1C80C38B00202E
S2140076601380F0BD00240025EEE7C04610B50121CA
S21400767040F2012004F04EFD00220A2140F2E830DC
S21400768004F072FC002140F2012004F043FD0022C9
S2140076900A2140F2E83004F067FC012140F20120A4
S2140076A004F038FD00220A2140F2E83004F05CFCC9
S2140076B010BDC046F0B54746CE4680B51F00002335
S2140076C08BB006000C001500039304933D293FD0B1
S2140076D040F221203F2936D140F23F08D3054DD550
S2140076E0402340F20009002540F2010C424605A95D
S2140076F00A7062464A7000228B7163468A70CA70AE
S2140077000A714A71CA724A461398CB71139B0003DA
S2140077100B72030D4B72129B000F3B432B4313431C
S21400772042460A7362464A731A0A8B73CA731A0C65
S2140077301B0E88720A74300012224B74FFF76EFB21
S21400774008B93D2C0CD00BB0C0BCB946B046F0BD55
S214007750D30517D440F23D083E2340F20109C3E7A3
S214007760EB05F0D5012204AB019303AB0093402157
S21400777001233000524200F079FFE4E7402340F254
S2140077800109B1E730000023802200217C30FCF79D
S214007790FFFC40F23D083E2340F20109A4E7C04644
S2140077A0F0B50026B5B005000C0017000021082231
S2140077B003A8029613F013FBB522002106A805962F
S2140077C013F00DFB6B469E1DB92333800C2C03D89B
S2140077D0714BA4001B599F4640F27F2035B0F0BD88
S2140077E03D23EB5C042B7DD00020F7E7002F00D074
S2140077F080E00F212800694AFFF7C4FA0028EDD17F
S2140078000322252128005242FFF7BCFAE6E7002FA4
S21400781000D184E0FE23122203203D2402A98B70AF
S21400782001330A704870CB700B714B712B5D8A71F7
S214007830063B5E1EB3415B428343103A0533CA7172
S21400784028000B720A32FFF7E9FA0028C6D12B5D32
S214007850012BC9D121212800514AFFF793FABDE731
S214007860002F00D18BE0FB233122032002A98B706E
S21400787004330A704870CB700B714B71C23BEB5CE3
S2140078808A71063B5C1EA3415B42834305332F3A55
S214007890CA7128000B720A32FFF7C0FA9EE7C7B318
S2140078A0380011F085F812F021FA48F21F5241F61E
S2140078B0B863C5F2EB12C4F22B0311F0D7FB4CF2FF
S2140078C000030022C4F25F0311F0B4F812F052FA7B
S2140078D010F086F902027F20322102432800FFF7CB
S2140078E0B9F97BE7FF22002F50D10B212800FFF7C4
S2140078F039FD73E740F200120F212800FFF7F6F972
S214007900002800D06AE7022225212800FFF7EEF9BA
S21400791064E77F2232212800FFF79CF95EE7022207
S214007920122128005242FFF72DFA002800D055E712
S2140079303D23EB5C012B00D056E733008021280066
S21400794005AAFFF763FD002800D047E76A46142122
S21400795028235218D35C212B00D045E729316944EF
S2140079604A780B78120213438A78280012041A43C6
S214007970C0235B0221211A40FFF7B8F92EE7022246
S214007980312128005242FFF7FDF927E70A21280097
S214007990FFF7E8FC22E7C046A4C80100FFFEFFFF91
S2140079A0FF7FFEFF70B505001400012911D80020E6
S2140079B0AB6D11B913420FD170BD1342FCD1042137
S2140079C02800FFF793F90028F6D1AB6D1C43AC6591
S2140079D0F2E740F22120EFE7D443042122002800FA
S2140079E0FFF7D0F90028E7D1AB6D1C40AC65E3E7A4
S2140079F0F8B505000C00FF20844320009CB9AC6D50
S214007A00CFB22600D640F6B2BE4200D1F8BD9140B5
S214007A109C430C43220004212800FFF71BF9002892
S214007A20F4D1AC65F2E740F22120EFE770B516001E
S214007A30C28D05000C007AB96E32825A8A4248D04E
S214007A407022AA5AB24249D03D22AA5C0A2A19D804
S214007A50A74992008A5897463B22825C012A14D096
S214007A603D22AA5C0A2A0DD8A24992008A58974657
S214007A70FF2C07D1022E00D193E1FF21022E13D94D
S214007A80FF2E24D040F2212070BD022C00D1C2E18E
S214007A9000D9EBE0002C00D1B6E1022E00D16EE159
S214007AA01A21022E00D9F9E0002E00D1F4E09A2225
S214007AB0012EE7D12800FFF755FC0028E4D1FF2C63
S214007AC001D06E23EC52FF2E01D07023EE52002020
S214007AD0DAE77022AA5AFF24B242B5D13D22AA5C48
S214007AE0FF260A2AB4D9CDE7022C00D1A0E1BFD8E0
S214007AF0002C00D17DE1022E00D11FE11F21022EB5
S214007B00D2D9FF2EBED10124FF221F21CCE0022CA9
S214007B1000D1F3E0FF2C00D1DBE040F22120012C65
S214007B20B2D1022E00D151E1FF2E00D14BE1082147
S214007B30012EA7D18822BDE7022C00D1D1E0FF2C70
S214007B4000D1BEE040F22120012C9DD1022E00D1B2
S214007B5036E1FF2E00D130E11721012E00D091E74B
S214007B609722A7E7022C00D117E100D98DE021006B
S214007B704B1E99410431022E00D110E151D9032E3B
S214007B8000D1F0E0FF2E00D07CE7FF2900D096E081
S214007B90FF2C9CD06E230020EC5275E70B2C00D1F6
S214007BA0F1E040F22120FF2C00D06DE7FF210F2EE0
S214007BB000D9A9E0504AB300D3589F46122C00D1F2
S214007BC0D5E0FF2C00D1D0E040F22120112C00D0CF
S214007BD05AE7013B012B00D956E71021152E00D19C
S214007BE0E9E000D9AEE0132E00D1C6E09222142EB2
S214007BF000D15FE746E7022C00D18AE031D9032C9A
S214007C005BD0FF2C00D03DE7FF21022E00D186E09E
S214007C1000D99CE08022002E00D14BE7012681226D
S214007C2048E78422002E00D144E70126852241E75A
S214007C30022C70D010D9032C3DD0FF2C00D021E7A9
S214007C40FF21022E69D000D986E09322002E00D1B3
S214007C5030E7012694222DE721004B1E994113316F
S214007C60EFE721004B1E9941C9B2CEE7FF2C00D0AA
S214007C7008E7022E00D194E0FF21022E00D813E779
S214007C808E4200D0FEE60020FEE6032C69D0FF2CD4
S214007C9000D0F7E6FF216EE799220BE7FF2E00D013
S214007CA0F0E60124FF221A212800FFF75BFB0028DC
S214007CB000D106E7E8E61621C3E70321A5E7FF2281
S214007CC0F8E6022E00D190E0FF2E00D1FFE6FF215D
S214007CD043E7022E00D18AE0FF2E00D1F7E6FF210F
S214007CE026E7022E78D0FF2E73D0182135E7C0463F
S214007CF0D8C8010004C9010030C90100022E71D0A5
S214007D00FF2E6CD0092113E7FF2E00D0BCE6002022
S214007D10BAE6022179E7152193E79522CAE6822280
S214007D20C8E68E22C6E68B22C4E68A22C2E68C22EB
S214007D30C0E68D22BEE640F22320A5E601249B2263
S214007D401F21B1E7162E00D01CE79122B2E6032EC3
S214007D5000D017E78322ADE6032E00D012E7962266
S214007D60A8E6072107E78722A4E6FF2136E7013BBE
S214007D70012B00D986E60F2130E790229AE60124EF
S214007D809B221A2190E70B210F2E00D812E7FF2E18
S214007D9000D077E6FF220B2186E70621EBE6862257
S214007DA088E69B22FF212800FFF7DCFA002800D097
S214007DB06AE6022689E68F227CE6FF22172173E711
S214007DC09822172170E7FF2208216DE789220821F3
S214007DD06AE7FF22182167E79822182164E7FF2246
S214007DE0092161E7892209215EE79822DAE78922DC
S214007DF0D8E7022E23D01E21022E00D854E63200E9
S214007E00FF2E00D150E73DE6022E0BD01921022EA0
S214007E1000D849E6F3E7022E07D01B21022E00D831
S214007E2042E6ECE79B2219213EE79B221B213BE71B
S214007E30022E07D02021022E00D835E6DFE79B224F
S214007E401E2131E79B2220212EE7C046F8B55C2391
S214007E504C000419E35A16005340FF220500100098
S214007E6018401A4211D0330A83B93D33E95CFF2724
S214007E70374004291AD10B2F59D01B2F37D0002F8B
S214007E8045D040F22120012F21D0F8BD3D20295CAD
S214007E909942ECD0370040F2004C97436745E6D055
S214007EA0FF27D9B2295437400429E4D07A23FF2289
S214007EB039002800EB5AFFF7B9FD0028E5D13D232D
S214007EC0EB5C042BD7D05C230020E652DDE7612272
S214007ED0002128005242FEF755FF0028D5D1602227
S214007EE000212800FEF702FF0028ECD0CDE7612233
S214007EF0002128005242FEF745FF0028C5D1202267
S214007F0000212800FEF7F2FE0028DCD0BDE7612243
S214007F10002128005242FEF735FF0028B5D1402246
S214007F2000212800FEF7E2FE0028CCD0ADE7612253
S214007F30002128005242FEF725FF0028A5D1002286
S214007F4000212800FEF7D2FE0028BCD09DE7C046E0
S214007F50F8B55C234C000419E35A16005340FF2280
S214007F600500100018401A4217D0330A53B13D21BD
S214007F70685C984206D0370040F20040974387423C
S214007F8000D06B547A23FF22FF212800EB5A3240A0
S214007F90FFF74CFD08B95C23E652F8BD10B582B079
S214007FA000236A4604009380D380012909D029B9AA
S214007FB0028D0E31FDF722FA02B010BD40F22120EC
S214007FC0FAE701AA0D31FDF7C9FF0028F4D16B4688
S214007FD09B88092123856B4620009A1DFDF7BEFF6E
S214007FE00028E9D16B469B79022B1BD00BD88BB1AE
S214007FF0012B14D16A467F2393807F220D21200017
S214008000FDF7FCF9D8E7032B09D16A468023938055
S2140080108022F3E76A46652393806522EEE76B4687
S2140080209A88EBE76A46772393807722E6E7C0468E
S21400803000B583B0012A18D8A9B1CAB940F24C538A
S21400804059436423B1FBF3F140F2EC13C35C019196
S2140080500092DBB1802340F200123F21DB05FFF7E0
S21400806029FB03B000BD0020FBE740F22120F8E723
S21400807044F64853994211D83523594340F2EC133D
S2140080803C22C35C01910092002BE3D1802344F292
S21400809000023F21DB05FFF70DFBE2E740F222205E
S2140080A0DFE7C046F0B557464E464546DE46E0B5E5
S2140080B00B6892465A78894619789F7812021143BF
S2140080C0DA783F040F4312065979040017431879EB
S2140080D09A790902DB790843120402431B0613430C
S2140080E098460023E3833B33E25C83B0012A00D149
S2140080F06FE0AB33FF33E05CA169461E73425E411E
S2140081008C46638C40F2000B9D1B65440095A58B46
S2140081100191ED1AAD1BADB2012847D04820205C76
S21400812001284AD041F6FF763E40AE424ED8002E99
S2140081305AD140F2D21C61463803400F6052414685
S214008140490300D58CE043465B0700D495E0022047
S214008150012A00D176E040F2E513E35C012B00D063
S21400816070E0002E00D1ADE04B461B681B78F02B6C
S21400817000D0A2E05A46009B1A704B464A461B683F
S21400818001331360731E668CA269F6184B46B6B2AE
S214008190E6831A6053461E80002800D099E003B09C
S2140081A0F0BCBB46B246A946A046F0BD48200099A2
S2140081B0205C09788B460128B4D141F6FF70FE0397
S2140081C0360F760138400643AE42B0D940F204205E
S2140081D0E5E7638CA169A58B0191ED1AC91840F2F9
S2140081E0000B0091ADB299E7524649462000FEF7D3
S2140081F04FFF0028D3D153461B88B34258D140F2D4
S214008200D2133803400FE05243465B0372D57F23F8
S21400821075193F0DADB23B409D4244D30320DE08A6
S21400822078223A4201D007233B401BB1B54247D0E3
S2140082300136B6B240F2D212A3523B23E25C012AC8
S21400824000D088E7638CA269F6184B46B6B2E68380
S2140082501A6053461E8040F20023184380B29EE701
S214008260FE22D2041742D2D14A460199E383116016
S214008270524640F20120138091E7B8B943469B0767
S21400828019D4012A04D040F2E513E35C012B25D073
S214008290638CA269F6184B46B6B2E6831A6053465C
S2140082A000201E807BE72E000420B9E773204FE7EE
S2140082B040F27F2073E706204AE740F201206EE78F
S2140082C00420B7E74A46638CA169E38311605246EF
S2140082D0138040F20023184380B260E70020002E8F
S2140082E000D041E74A46638CA169E3831160524699
S2140082F0138054E73B23E25C25E7C046F0B5C6464C
S214008300002300B584B00F0001AA60210600019387
S21400831002930393FEF7CAFD040020B1200004B0C8
S21400832080BCB846F0BD019B40211B031B0B3000F0
S21400833002AA0193FEF7BAFD04000028EED1029BC4
S2140083401D03019B2D0B98463D230295F35C012BE4
S2140083505DD0042B66D03F21300003AAFEF7A6FDB1
S21400836004000028DAD14346E81A3823039A1A4252
S21400837008D16B46DA784BF2E813C0F20103534398
S2140083809B0AC0183E23F35C2BBB11F087FC48F217
S2140083901F5241F6B863C5F2EB12C4F22B0310F07D
S2140083A049FB47F6E1224EF24713CAF61462C4F2BE
S2140083B0220311F0E1F811F0DDFC061C301C0FF072
S2140083C00FFC050010F0F4FA311C0FF075FB00B13D
S2140083D001353D60A2E710F0EBFA41F28761C3F683
S2140083E059510FF0EFFD40F2EE13051CF05C10F053
S2140083F093FA291C0FF09CFF0021C4F2C8210FF04D
S214008400E1FD011C281C10F0BBF8061CD6E76A46E6
S21400841040F2535130000332FEF7F0FD040000280E
S21400842099D07BE76A4640F256513000033B033250
S214008430FEF7E4FD040000288DD06FE7F0B585B0A8
S2140084400D000AA90E88D4439E400327022301A9E3
S21400845032404F70CB71270A130A8C70CF700A72A5
S214008460270C4B72240E130C120ECA720D700C22BF
S2140084700F714C718D718B72FEF7D0FC05B0F0BD9C
S214008480BC2310B5C3585B78802B0AD14433C2583E
S2140084901179537940F620021B020B43134207D092
S2140084A010BD0023012208217C30FBF759FEF7E7B8
S2140084B00023802208217C30FBF752FEF0E7C046FE
S2140084C040F66C00C2F20000036810B523B100232A
S2140084D002220821FBF744FE10BDC04610B5837883
S2140084E0012B00D010BD40F2063003F013FEF9E772
S2140084F00023F0B583B0019301AD7F332B705F3B53
S2140085006B70CE33FF33C35C04000E00012B01D02A
S2140085100223AB7003F046FE40F2052003F046FE51
S214008520002720B103F040FE380003B0F0BD002362
S214008530042229002000FEF75DF9012307003370AE
S214008540F0E7C046F0B50400002085B00290039026
S21400855002A8019003A80090200000F087F8FF23EF
S2140085601A000700024003422CD1029B002B33D096
S21400857040F2D4151E786651597809020E436651AA
S2140085809A78120432436251D978039E09060A4348
S2140085906251B20720D540F2D8171879E0515979C0
S2140085A009020843E0519A7912040243E251DB794A
S2140085B01B061A430A9BE2510BB10A9B1E6040F24F
S2140085C07F2007E0012A14D00A9B4BB10A9B039A2E
S2140085D01A602FB905B0F0BD0A9B002BF6D1F8E75C
S2140085E04FF600731F42F5D140F20020384380B2A8
S2140085F0F0E70A9B23B1039A40F201201A60E9E7EC
S21400860040F20120E6E7C0460A2330B50D000021FF
S21400861085B002AA6B44118019800391CF31FF31D7
S214008620415C040071B1012252427C3421230121B5
S21400863020000095FBF728FD10B92B689B060BD48D
S21400864005B030BD03A9FEF7DFFF039B1B780A2B9E
S214008650E9D142F21072E8E7002320220021200030
S214008660FBF796FD40F21220EAE7C046F0B54E460C
S2140086704546DE465746E0B589B0050002A8844662
S2140086800E000F211F0040F27C09002361440B708E
S2140086900693A94406AB00938846A02305214846C6
S2140086A0FBF7F2FC0400D8BB8022130006990B40AF
S2140086B00A4223D040F2C40A534640F28C0BE858D4
S2140086C05B468278EB5C944603936346C27812025C
S2140086D01A43039B52BAD21A92B2131D1BB2002B36
S2140086E000DD7AE0437902791B0213438279120493
S2140086F013439C466246C3791B0613438A0617D467
S214008700129A02B1136040F60002934206D0002F80
S2140087105ED0C422AA58139908320A601E4255D069
S214008720200009B0F0BCBB46B246A946A046F0BD44
S21400873041462800FFF7DCFE04000028F0D107AB16
S2140087400790009340F2F412812305214846FBF778
S2140087509BFC002860D1079AD3075DD480210B00CC
S2140087601340114252D0C4248C262859A95DC278E1
S214008770877812023A4352BA521A92B2131D1BB2AB
S214008780002B74DC42790379817912021A430904BA
S2140087900A4340F28351C3791B0613430A001A406A
S2140087A0194231D040F281110A001A4019423ED1D6
S2140087B08039FF3908001840194232D1129A1360E6
S2140087C040F2D413E85040F21224A9E7AE24A7E7FB
S2140087D0139A17601E42A3D1F8E7039B0532013BAC
S2140087E0C118C35C92B228000393FEF74BF85946B3
S2140087F06B5C51466958039A8C466344013B1A7079
S21400880053460699E8586DE799070AD4129A1360FA
S21400881040F2D4130022EA5040F27F2480E7990702
S21400882039D512990B6040F2D413EA50F4E7417A36
S214008830047A0902827A0C43C17A1204224309069A
S2140088400A43802B23D040F200118B4229D0042B00
S214008850E5D1802149048A421DD0802189038A42BD
S214008860DFD112990B60D133FF33EA50ABE74B1ED2
S2140088700532C75CC11892B22800FEF703F82A59E1
S214008880AB5D94466344013B1F7028597AE7FF218D
S21400889011401229C5D112990B6040F2D413EA5048
S2140088A091E7402ABDD1F6E7F0B500230400170093
S2140088B0012287B00393049305937C3404AB050030
S2140088C00E0000930121812320005242FBF7DCFBBF
S2140088D038BB049BDB0726D4AFB9049B1B0656D4D3
S2140088E07F2305A90B705F3B4B70CE33FF33EB5CE9
S2140088F0012B00D0023700230422CB7028008F7093
S2140089000133FDF777FF3378212B19D0232B3BD08B
S214008910222B37D040F2024113E040F27F20AE2BEC
S21400892026D007B0F0BD0021002301222000FBF76F
S2140089302FFC31002800FDF7C7FF002FE3D1CCE75E
S214008940822103AB009340F2F41201232800FFF7C4
S214008950F9FD03000028E0D1039B802B0AD040F2EB
S2140089600012934215D0042B19D0022BD9D106E061
S2140089702F30D6E75533FF33EB5C122BD1D040F2C5
S2140089807F20CEE70621DCE740F20211D9E77F2000
S214008990C7E740F2D413EB58402BF0D1C1E740F2C2
S2140089A0D4128023AA589B039A42E8D1B9E7C0465E
S2140089B00C2908D150B14AB141F201014260018050
S2140089C083600020704741F22000FBE72120F9E792
S2140089D0F0B5C64614007E2500B586B006000EA883
S2140089E00F00190003780CAA9846128825400A2D15
S2140089F014D1B06830B30A2303AD6B4401930095DD
S214008A000C2301F03FFE58B96B465B89062B05D157
S214008A10793323400A2B22D00B2B05D041F22100BC
S214008A2006B080BCB846F0BD07336B440D9942468D
S214008A308C46043A62440092390022007068FBF7C4
S214008A40A1FCEDE70D9D043BAC4663440193009208
S214008A500B00220039007068FBF77EFCE0E72B0075
S214008A60E4E7C04670B50A2584B0002316006A46BF
S214008A706D442B8003933033137203AB51724068FE
S214008A80002100930195022302AAFBF7C3FB040012
S214008A9020B92B88102B04D041F20604200004B025
S214008AA070BD10223000039912F090F9F6E7C04628
S214008AB00C2909D158B152B141F201430380002379
S214008AC0426003810020704741F22040FBE72120EE
S214008AD0F9E7C046F0B557464E464546DE46E0B591
S214008AE087B010AD1C0008CD904699462B786A4694
S214008AF09A46002307000E0005935382002962D091
S214008B00002C60D063009A455DD31B199A455AD84D
S214008B10062313746B465974A3B29B4612236B4408
S214008B20029305AB0193022300935A4648F20001D4
S214008B30406804ABFCF790F90500002845D11223E5
S214008B406B440293760005AB01935A4643464CF2BB
S214008B50000178680096FCF77FF90500A8BB6B4615
S214008B601C7412236B44029305AB019301235A46EF
S214008B7000934CF20001786804ABFCF76DF9050031
S214008B8018BB12236B44029305AB019353465A4617
S214008B90009344F200014B467868FCF75DF9050047
S214008BA098B96B465B8A012B24D905990A78A2B13D
S214008BB041F20645022B08D14B787A351B02134347
S214008BC05BBA3B8101E041F22145280007B0F0BCCA
S214008BD0BB46B246A946A046F0BD887802010332DD
S214008BE0934207D1129B220118700331139812F09A
S214008BF0EDF8EAE741F20645E7E7C04610B5CC29AE
S214008C0045D1002846D08262012202814CF60C62D1
S214008C10C0F201020023426540F2012441F2EC3228
S214008C20AA39C362436383630363C3630364436411
S214008C308364C36403658184C261048443540282EE
S214008C4040F20112828144F6B072C3F6C432426129
S214008C5044F201020121C0F20D0281720260082175
S214008C600022838058338271C1520233C2542F339C
S214008C70C25409390133C15202330431C15414338A
S214008C80C2541533C2541533C254002010BD44F2EA
S214008C902000FBE72120F9E770B5002204000D0054
S214008CA0806A5E21FCF7AAFB20B9DDB1012D02D057
S214008CB044F2210070BD4FF600736268C0F2FF03F5
S214008CC01A42F5D0A06AFDF713F80028F2D120006A
S214008CD000F0E8FA4FF6007344F2000203409342B5
S214008CE00ED1E7E7E3787BB9A378E3B1200000F084
S214008CF0F5FB4FF6007344F2000203409342D9D0CE
S214008D00E08444F28000D5E72389012BECD12000D3
S214008D1000F0CCFAFF230340842B0BD08C2BC9D059
S214008D20822BEDD1C6E72522A354033A44F28400F1
S214008D30A354BFE7A06AFCF7DBFF0028BAD10021E6
S214008D40A28BA06AFDF764FA0028CDD0B2E7C04631
S214008D5070B505001400932903D8474A8B00D358F2
S214008D609F4644F2210070BDFE2318002040234297
S214008D70F7D1220A022AF4D813019B1AED186A3595
S214008D802C70F0E7E3B2A20772D159228354002078
S214008D90E9E7082CE5D15823C4540020E3E78470A3
S214008DA00020E0E744710020DDE7C4700020DAE729
S214008DB084710020D7E72023C4540020D3E73F2344
S214008DC022009A43002ACCD104710020CBE7FF2270
S214008DD01440631E022BC4D804810020C3E78477A6
S214008DE00020C0E7631E022BBBD82123C4542200F8
S214008DF05A21806AFCF702FB0028B4D12200012128
S214008E00E86AFBF7E7FAAEE7C4770020ABE7232370
S214008E10C4540020A7E7FC23180020402342A0D11A
S214008E202C73A0E7FC2318002040234299D1AC7293
S214008E3099E78483002096E74483002093E7048321
S214008E40002090E743F6C3339C4200D889E7C482EB
S214008E50002088E744F6AF739C4200D881E78482FE
S214008E60002080E7448200207DE7048208007AE73D
S214008E7044F2230077E7C04670C9010010B5922976
S214008E8003D8354C8B00E3589F4644F2210010BDB2
S214008E905923C35C00201380F9E75823C35C0020E5
S214008EA01380F4E7837800201380F0E743790020EE
S214008EB01380ECE7C37800201380E8E7837900206E
S214008EC01380E4E72023C35C00201380DFE725231C
S214008ED0C35C00201380DAE7037900201380D6E70E
S214008EE0C38C00201380D2E7037A00201380CEE7DD
S214008EF0837F00201380CAE72223C35C00201380F0
S214008F00C5E7C37F00201380C1E72323C35C00208E
S214008F101380BCE78923C35C00201380B7E75A237D
S214008F20C35C00201380B2E7037B00201380AEE70B
S214008F30837A00201380AAE7838B00201380A6E79D
S214008F40C38A00201380A2E7838A002013809EE74E
S214008F50038A080013809AE7C0CB010010B500F022
S214008F60ABF910BDF8B5DE464E46454657460400FA
S214008F70E0B540F2100B01252026616D4B5D9C4646
S214008F80042B17D9052B56D040F2080A40F20409E4
S214008F9040F2020801206A1E8A181378A3B9A37843
S214008FA0184229D1531E914232D141F2EC32634627
S214008FB0052B14D00135062DDFD10020F0BCBB46B2
S214008FC0B246A946A046F8BD012B0FD14746A37866
S214008FD01F42E7D0634640F6D862052BEAD105214A
S214008FE02000FFF7B5FE0028E4D0E7E7022B06D105
S214008FF04F46A3781F42D5D040F2E832D7E7032B7E
S21400900008D15746A3781F42F6D1531E9142CCD0C2
S2140090101A00C2E7042B06D15F46A3781F42C1D0D0
S21400902040F2E832C3E7052BBCD1A3781E42B9D084
S21400903040F2E832BBE7A3781E42BBD0202BA3D178
S21400904041F2EC3205212000FFF782FEB6E7C0466B
S21400905010B50400806AFCF74BFE00B110BD41F26B
S214009060EC320021A06AFDF7D3F80028F6D1A06AFA
S214009070FCF7AEF9F2E7C046F0B5DE4657464E4678
S2140090804546E0B587B004AB039206008A46806A80
S2140090905F219A1DFCF762FF804600287BD104AB57
S2140090A0DB88002B00D17EE0002340F2000B01930A
S2140090B002930024002240F20109736D51461D5DA3
S2140090C04B46AB40DFB20B4250D0002A4ED1253281
S2140090D0B25C3A426ED1FC22134200D17DE05923A5
S2140090E0F35C3B4202D03000FFF7B2FF40F2010BC8
S2140090F0022F61D125234A46F35C1A425CD02B002E
S21400910008335B009A5B40F24C439A4203D9644BA7
S2140091109C46624492B23521B06AFCF76FF98046ED
S214009120C8BB4CF61463AD00C0F20103595DB06ACB
S214009130FCF706FF804670BB4CF64463C0F20103A2
S214009140EB5830009847FF2380460340872B4ED0CD
S214009150122B20D05923F35C00211A0001913A40CB
S2140091603B4203D05A460192012A53D00134062CC2
S214009170A3D1029B2BB35B46012B00D18DE0002AC6
S21400918097D0029B012B6AD0029B012B6DD944F22B
S2140091908808039A1370404607B0F0BCBB46B24638
S2140091A0A946A046F0BD0121B06AFCF7C9FEB0B3DF
S2140091B08046F0E70122D9E72B0008335B009A5B74
S2140091C0A9E75B46012B50D1019BCBB15A46019BC8
S2140091D09B46002A00D16CE7D3E75923F35C3B4259
S2140091E000D185E75B46012B00D081E77BE725228F
S2140091F0B35C3B43B354029B0133DBB20293A9E753
S2140092003000FFF725FF5A4640F2010B002A00D136
S2140092104FE7B6E73000FFF71BFF0022A6E7002265
S2140092205621B06AFCF7EAF8FF230340232B01D04F
S214009230002BBDD1B06AFCF7CBF80028B8D104AB40
S2140092405F21B06A9A1DFCF789FE0028B0D104ABF6
S214009250DB88012B00D127E744F20A089BE7039B33
S214009260029A44F287081A7095E7FF2342461A408E
S214009270012A0FD04246002A00D18CE79A4393B2C7
S214009280002B00D087E7434644F20000184383B221
S214009290984680E744F284087DE7934694E7C04604
S2140092A0B4FBFFFF44F224007047C046252300228B
S2140092B0C25444F28400704770B5002325260D0082
S2140092C083554CF65C631100C0F20103AA00D35824
S2140092D004009847FF2213000340024206D08D3B4D
S2140092E0012B02D80123AB40A35570BD0123AB4030
S2140092F044F28B00A355F8E710B50122040056216E
S214009300806AFCF77BF8FF230340232B00D07BB951
S214009310A06AFCF75DF8FF231A0002400A2A08D06C
S21400932030B1010099438BB213B944F200001043E8
S21400933010BD44F28200FBE7F0B54546DE465746D0
S2140093404E46E0B587B003930023040093460025FD
S214009350002040F2000840F2210A40F20109029182
S21400936000935346E35C022B00D17BE0636D5F5DA8
S214009370BE1EF6B2012E1AD95B464A46FB401A427A
S2140093801DD10135062DECD14346012B00D174E0EA
S214009390012B00D999E0FF230340012B00D19AE06E
S2140093A007B0F0BCBB46B246A946A046F0BD009B3F
S2140093B0012BE6D05B464A46FB401A42E1D004AB9E
S2140093C05F21A06A9A1DFCF7C9FD0028E8D104AB0E
S2140093D0DB88012B0BD1012E55D93B0008335B00EF
S2140093E035211A5BA06AFCF709F80028D8D14CF69C
S2140093F01463BA00C0F20103995CA06A0192FCF7FC
S2140094009FFD0028CCD12000FFF776FF0028C7D1AB
S21400941004ABDB885BB9012E3CD93B0008335B000C
S21400942035211A5BA06AFBF7E9FF0028B8D14CF695
S2140094304463019AC0F201039B5820009847FF231B
S2140094400340872B2DD0122BAAD0029B4A46FB4006
S2140094501A4296D04346002B00D192E74246039B21
S2140094601A7091E74346002B00D17FE7052D00D008
S2140094707CE74346012B00D08AE74246039B44F232
S21400948087001A708CE73900200000F00FFE0028D5
S214009490ADD085E73900200000F008FE0028C6D0D1
S2140094A07EE74A462521BA40635C134342460132B2
S2140094B0D2B290460C22DBB263541A42C5D0424662
S2140094C0039B1A7001230093BFE74246039B44F2B6
S2140094D088001A7064E744F2840061E7F0B5C64677
S2140094E000B582B06B460022DA71DD1D03890400E8
S2140094F0012B59D0022B22D0032B6BD044F2210033
S21400950002B080BCB846F0BD252306798778C254E1
S214009510033BC254FFF726FD28B92B003A00310062
S2140095202000FFF709FFFF230340122BE8D0E27F5D
S214009530002A73D1872B00D0A3E0022323812523A2
S214009540A178E35C0A001A401942D7D0511E0B00DE
S21400955013401142D2D11D0052080133DBB2002A5B
S214009560F9D1ABB3252722264CF62C63E255C0F280
S2140095700103A255AA009B58200090469847FF2357
S2140095801A00024003422DD1FE3BAB40E355A35DDB
S21400959044F28A00012B49D92389032BB0D1212319
S2140095A0E35C012B1BD0ABE72123C35C991E01298A
S2140095B0AAD9012B25D0C37F002B9FD021204FF6A0
S2140095C0007318429CD144F20003184380B297E718
S2140095D07F2095E72123C35C2120012BF3D144F2A1
